:020000040800F2
:100000000000012009020008090600080B0600088C
:100010000D0600080F060008110600080000000089
:1000200000000000000000000000000013060008AF
:100030001506000800000000170600081906000851
:100040005902000859020008590200085902000824
:100050005902000859020008590200085902000814
:100060005902000859020008590200085902000804
:1000700059020008590200085902000859020008F4
:10008000210600083106000859020008000000009F
:1000900000000000000000000000000059020008FD
:1000A00059020008590200085902000859020008C4
:1000B00059020008590200085902000859020008B4
:1000C00059020008590200085902000859020008A4
:1000D00059020008590200087D20000800000000B5
:1000E00059020008590200085902000800000000E7
:1000F000000000000000000000000000590200089D
:1001000000000000590200085902000859020008C6
:1001100000000000000000000000000000000000DF
:100120005902000859020008590200085902000843
:10013000590200080000000000000000000000005C
:10014000000000000000000000000000590200084C
:100150005902000859020008590200085902000813
:1001600059020008590200080000000000000000C9
:10017000000000000000000000000000000000007F
:10018000000000005902000800000000000000000C
:040190005902000808
:1001940053B94AB9002908BF00281CBF4FF0FF31EA
:1001A4004FF0FF3000F00CB8ADF1080C6DE904CE4F
:1001B40002F006F8DDF804E0DDE9022304B070473C
:1001C400704700BF10B5054C237833B9044B13B105
:1001D4000448AFF300800123237010BD38000020D1
:1001E400000000008024000808B5034B1BB103493C
:1001F4000348AFF3008008BD000000003C0000206D
:1002040080240008DFF834D00D480E490E4A00233C
:1002140002E0D458C4500433C4188C42F9D30B4AB6
:100224000B4C002301E013600432A242FBD301F023
:100234002DFD01F0A1FF00F065F8704700000120DA
:100244000000002038000020C824000838000020E6
:10025400CC020020FEE772B6FEE7000000B595B0C0
:100264003022002108A801F07FFF002303930493A8
:100274000593069307930193204A116C41F0805132
:100284001164126C02F080520192019A02931C4A8A
:10029400136823F4404343F400431360136803F4E6
:1002A40040430293029B012308934FF48033099344
:1002B40002230E934FF480020F9219221092A82267
:1002C400119212930423139308A800F0B1FA80B991
:1002D4000F23039302210491002305934FF48052CA
:1002E4000692079303A800F0F3FC20B915B05DF85B
:1002F40004FBFFF7B0FFFFF7AEFF00BF003802407A
:100304000070004008B501F09FF9FFF7A7FF00F067
:1003140009F800F069F800F0DFF800F087F801F060
:10032400BFFCFEE7F0B58BB0002405940694079457
:10033400089409940194294B1A6B42F004021A633D
:100344001A6B02F004020192019A02941A6B42F0B1
:1003540080021A631A6B02F080020292029A0394DA
:100364001A6B42F001021A631A6B02F00102039243
:10037400039A04941A6B42F002021A631B6B03F093
:1003840002030493049B164F22464FF4005138464F
:1003940000F05FFE134D22460221284600F059FE6C
:1003A4004FF400530593012606960794089405A973
:1003B400384600F063FD05960694079405A928467F
:1003C40000F05CFD0223059306960794089405A9A2
:1003D400284600F053FD0BB0F0BD00BF00380240CA
:1003E400000802400000024010B582B000240194CD
:1003F4000D4B1A6B42F400121A631B6B03F40013C7
:100404000193019B22462146102001F0C5F81020DB
:1004140001F0D2F822462146112001F0BDF8112046
:1004240001F0CAF802B010BD0038024008B50B480C
:100434000B4B03600B4B436000238360C3604FF49A
:100444008042026143618361C361036200F012F977
:1004540000B908BDFFF7FFFEFBE700BF5400002012
:1004640000540040A086010030B589B000230393F6
:1004740004930593069307930268144B9A4201D0A0
:1004840009B030BD00250195114C236B43F00203E4
:100494002363236B03F002030193019BC0230393A3
:1004A40012230493032306930423079303A90948FF
:1004B40000F0E4FC0295236C43F400132364236CE2
:1004C40003F400130293029BDAE700BF00540040D8
:1004D400003802400004024008B50A480A4B036091
:1004E4004FF4E133436000238360C36003610C2253
:1004F40042618361C36101F0ADF900B908BDFFF742
:10050400AAFEFBE7680100200044004030B589B032
:100514000023039304930593069307930268334BD4
:100524009A4201D009B030BD04460025019503F577
:10053400FA331A6C42F400321A641A6C02F4003270
:100544000192019A02951A6B42F001021A631B6B25
:1005540003F001030293029B0C23039302230493ED
:10056400032306930723079303A9214800F086FC7D
:100574002048214B03604FF0006343608560C560F1
:100584004FF48063036145618561C561056245621D
:1005940000F0E6FD18BB174BA3639C631748184B88
:1005A40003604FF000634360402383600023C36013
:1005B4004FF48062026143618361C36103624362F9
:1005C40000F0CEFD70B90D4B63639C6300221146AD
:1005D400262000F0E1FF262000F0EEFFA2E7FFF75F
:1005E4003AFED8E7FFF737FEEDE700BF00440040CE
:1005F400000002400801002088600240A80000209A
:10060400A0600240FEE7FEE7FEE7FEE7FEE7704774
:100614007047704708B501F031F808BD08B50248C5
:1006240000F084FE08BD00BF0801002008B50248A0
:1006340000F07CFE08BD00BFA800002082B00021AD
:1006440000910B4B5A6C42F480425A645A6C02F487
:1006540080420092009A01911A6C42F080521A640E
:100664001B6C03F080530193019B02B0704700BFE1
:1006740000380240002800F0CC8070B5044690F8A1
:100684003D30002B77D0242384F83D302268136852
:1006940023F0010313602268136843F400431360DA
:1006A4002268136823F40043136000F0C7FB6268F8
:1006B4005A4B9A4264D85A4B98428CBF0023012368
:1006C400002B40F0A8805749A1FB00318B0C256812
:1006D4006A6822F03F0242EA91426A6021680A6A2B
:1006E40022F03F0266684D4DAE424FD801331343AA
:1006F4000B622168CA6922F44F4222F0FF02656846
:10070400464B9D424CD8431E6D00B3FBF5F30133B9
:1007140040F6FC70034278D0C3F30B031A43CA615A
:1007240021680B6823F0C003E269206A0243134383
:100734000B6021688B6823F4034323F0FF032269D1
:10074400E068024313438B602168CB6823F0FF0306
:100754006269A06902431343CB602268136843F0C3
:100764000103136000202064202384F83D302063BB
:1007740084F83E0070BD80F83C30FFF775FE82E7D8
:10078400294B98428CBF0023012399E74FF49675B7
:1007940005FB03F3254DA5FB03539B090133A6E792
:1007A400A668BEB9431E05EB450CB3FBFCF301334D
:1007B400C3F30B03B3FA83F35B0943BBC6B9431E0C
:1007C40005EB4505B3FBF5F30133C3F30B0343F426
:1007D4000043A3E7431E05EB850C0CEB8C0CB3FB29
:1007E400FCF30133C3F30B03B3FA83F35B09E4E7CC
:1007F400431E05EB850505EB8505B3FBF5F30133D6
:10080400C3F30B0343F4404388E7042386E701233F
:1008140084E7012070470120ACE700BFA0860100F7
:100824007F841E0083DE1B43FF083D00D34D62100E
:10083400002800F0E08170B582B00446036813F02C
:10084400010F3BD09F4B9B6803F00C03042B2CD06F
:100854009C4B9B6803F00C03082B21D06368B3F511
:10086400803F4FD0B3F5A02F52D0964B1A6822F494
:1008740080321A601A6822F480221A606368002B9E
:1008840050D000F007FF05468E4B1B6813F4003F61
:1008940014D100F0FFFE401B6428F5D90320B1E118
:1008A400884B5B6813F4800FD8D0864B1B6813F415
:1008B400003F03D06368002B00F09F81236813F08E
:1008C400020F54D07F4B9B6813F00C0F3ED07D4B2E
:1008D4009B6803F00C03082B33D0E368002B68D02B
:1008E400794B01221A6000F0D5FE0546754B1B6852
:1008F40013F0020F54D100F0CDFE401B0228F5D9AD
:1009040003207FE16F4A136843F480331360B5E733
:100914006C4B1A6842F480221A601A6842F48032DE
:100924001A60ABE700F0B6FE0546664B1B6813F48D
:10093400003FC3D000F0AEFE401B6428F5D903206D
:1009440060E1604B5B6813F4800FC6D15D4B1B689C
:1009540013F0020F03D0E368012B40F05081594A91
:10096400136823F0F803216943EAC1031360236881
:1009740013F0080F42D063696BB3534B0122C3F8E1
:10098400802E00F087FE05464E4B5B6F13F0020F7E
:1009940034D100F07FFE401B0228F5D9032031E159
:1009A400484A136823F0F803216943EAC10313603A
:1009B400DDE7454B00221A6000F06CFE0546414B12
:1009C4001B6813F0020FD2D000F064FE401B022813
:1009D400F5D9032016E13C4B0022C3F8802E00F029
:1009E40059FE0546374B5B6F13F0020F06D000F03B
:1009F40051FE401B0228F5D9032003E1236813F0BC
:100A0400040F77D02F4B1B6C13F0805F33D100237E
:100A140001932C4B1A6C42F080521A641B6C03F045
:100A240080530193019B0125284B1B6813F4807F9D
:100A340023D0A368012B34D0052B38D0214B1A6F57
:100A440022F001021A671A6F22F004021A67A368DF
:100A5400002B3DD000F01EFE06461A4B1B6F13F010
:100A6400020F46D100F016FE801B41F288339842F3
:100A7400F3D90320C6E00025D6E7144A136843F4EB
:100A84008073136000F006FE0646104B1B6813F4D7
:100A9400807FCED100F0FEFD801B0228F5D9032013
:100AA400B0E0084A136F43F001031367CFE7054B27
:100AB4001A6F42F004021A671A6F42F001021A67B1
:100AC400C5E700BF00380240000047420070004004
:100AD40000F0E0FD0646524B1B6F13F0020F08D0E6
:100AE40000F0D8FD801B41F288339842F3D90320EB
:100AF40088E0EDB9A369002B00F08380484A92682E
:100B040002F00C02082A51D0022B17D0454B0022C8
:100B14001A6600F0BFFD0446414B1B6813F0007FCA
:100B240042D000F0B7FD001B0228F5D9032069E08C
:100B34003B4A136C23F080531364DBE7394B0022E8
:100B44001A6600F0A7FD0546354B1B6813F0007FBD
:100B540006D000F09FFD401B0228F5D9032051E088
:100B6400E369226A1343626A43EA8213A26A52085F
:100B7400013A43EA0243E26A43EA0263284A5360C1
:100B8400284B01221A6600F085FD0446244B1B689D
:100B940013F0007F06D100F07DFD001B0228F5D97B
:100BA40003202FE000202DE000202BE0012B2BD090
:100BB4001B4B5B6803F48001E269914226D103F088
:100BC4003F02216A8A4223D1616A47F6C0721A4001
:100BD400B2EB811F1ED103F44031A26A5208013ADC
:100BE400B1EB024F18D103F07063E26AB3EB026F0A
:100BF40014D1002006E001207047012002E001200A
:100C040000E0002002B070BD0120FBE70120F9E7FD
:100C14000120F7E70120F5E70120F3E70120F1E7E0
:100C2400003802400000474208B5264B9B6803F099
:100C34000C03042B41D0082B41D1224B5A6802F0FB
:100C44003F025B6813F4800F12D01E4B5968C1F346
:100C540088111D480023A1FB0001FFF799FA194BE5
:100C64005B68C3F3014301335B00B0FBF3F027E09F
:100C7400144B5868C0F388104FEA401CBCEB000CBE
:100C84006EEB0E0E4FEA8E1343EA9C634FEA8C110F
:100C9400B1EB0C0163EB0E03DB0043EA5173C900B3
:100CA40011EB000C43F10003990200234FEA8C205E
:100CB40041EA9C51FFF76CFAD1E7034800E003488E
:100CC40008BD00BF0038024040787D010024F400D4
:100CD400002800F09B8070B50D4604464F4B1B68FE
:100CE40003F007038B4208D2CBB24C4A137013684B
:100CF40003F007038B4240F08B80236813F0020F4C
:100D040017D013F0040F04D0454A936843F4E0531A
:100D14009360236813F0080F04D0414A936843F4A6
:100D2400604393603E4A936823F0F003A1680B4349
:100D34009360236813F0010F32D06368012B21D034
:100D44009A1E012A25D9364A126812F0020F61D080
:100D540033498A6822F0030213438B6000F09AFC43
:100D640006462F4B9B6803F00C036268B3EB820FBB
:100D740016D000F08FFC801B41F288339842F0D9E2
:100D8400032042E0264A126812F4003FE0D1012019
:100D94003BE0234A126812F0007FD9D1012034E0ED
:100DA4001E4B1B6803F00703AB4207D9EAB21B4B87
:100DB4001A701B6803F00703AB422DD1236813F0AC
:100DC400040F06D0164A936823F4E053E1680B43FA
:100DD4009360236813F0080F07D0114A936823F433
:100DE4006043216943EAC1039360FFF71DFF0C4B85
:100DF4009B68C3F303130B4AD35CD8400A4B1860B7
:100E04000A4B186800F0FAFB002070BD01207047FF
:100E14000120FAE70120F8E70120F6E7003C024050
:100E240000380240A8240008080000200400002024
:100E3400014B1868704700BF0800002008B5FFF791
:100E4400F7FF044B9B68C3F38223034AD35CD84067
:100E540008BD00BF00380240A024000808B5FFF711
:100E6400E7FF044B9B68C3F34233034AD35CD84087
:100E740008BD00BF00380240A024000800230F2B47
:100E840000F2D78070B582B065E085684FEA430E02
:100E9400032404FA0EF425EA0405CC6804FA0EF4DB
:100EA4002C438460446824EA02044A68C2F30012B2
:100EB4009A40224342605CE0DC08083450F8242065
:100EC40003F00705AD004FF00F0E0EFA05FE22EAFF
:100ED4000E0E0A69AA4042EA0E0240F824205CE0A1
:100EE400042200E0002202FA0EF22A430234514D99
:100EF40045F82420504A94686FEA0C0224EA0C0551
:100F04004E6816F4801F01D04CEA04054A4CA560D3
:100F1400E46802EA04054E6816F4001F01D04CEAA6
:100F24000405454CE560646802EA04054E6816F45D
:100F3400003F01D04CEA04053F4C65602468224020
:100F44004D6815F4803F01D04CEA04023A4C22600B
:100F540001330F2B6BD801229A400C6804EA020C6F
:100F640032EA0404F4D14C6804F00304013C012C7B
:100F74008BD94A6802F00302032A09D0C4685D00D1
:100F84000322AA4024EA02048A68AA402243C260D7
:100F94004A6802F00302022A8ED004684FEA430E24
:100FA400032202FA0EF224EA02044A6802F003025F
:100FB40002FA0EF2224302604A6812F4403FC7D09C
:100FC400002201921D4A546C44F480445464526CCF
:100FD40002F480420192019A9C08A51C154A52F819
:100FE400255003F0030E4FEA8E0E0F2202FA0EF282
:100FF40025EA0205124A90423FF474AF02F580627A
:1010040090420ED002F5806290420CD002F58062CC
:1010140090420AD002F5806290423FF461AF072209
:1010240061E701225FE702225DE703225BE702B08A
:1010340070BD704700380140003C01400038024058
:10104400000002400369194201D0012070470020CA
:1010540070470AB18161704709048161704730B4F7
:1010640005682C6824F480242C6004686360836819
:10107400402B05D0036899600368DA6030BC704780
:1010840003689A600368D960F8E7000010B4036845
:10109400D9B210390C4AA2FB014212090B4CA25CD2
:1010A400C2655F2909D923F47F7323F00303043352
:1010B4008365806D5DF8044B704723F47F7323F0E0
:1010C40003038365F5E700BFABAAAAAA9824000826
:1010D400836A826992B9012B0AD0022B02D00BB128
:1010E40000207047C36A13F0807F28D10020704726
:1010F400C36AB3F1C07F24D000207047B2F5005F0B
:1011040009D0022B25D9032B25D1C36A13F0807F84
:1011140023D100207047032B03D8DFE803F0140425
:10112400140A00207047C36A13F0807F0DD1002099
:101134007047C36AB3F1C07F09D000207047012013
:10114400704701207047012070470120704701203B
:10115400704701207047002070470120704700004D
:1011640070B5044600F096FA002C5BD005460223C5
:1011740084F83530002384F834302268136823F06F
:101184000103136023681A6812F0010F0AD000F0FB
:1011940081FA431B052BF5D920236365032084F8CA
:1011A400350070BD1A68204911406268A068024386
:1011B400E06802432069024360690243A069024374
:1011C400E0690243206A02430A43616A04291ED08B
:1011D4001A602668756925F00705636A1D43042BA8
:1011E40007D1A36A1D43E36A1BB12046FFF770FFD2
:1011F40090B975612046FFF749FFE26D3F239340A4
:10120400836000206065012384F83530C9E7E16A12
:10121400206B01430A43DBE740236365012084F824
:101224003500BEE70120BCE73F8010F038B5044626
:10123400856D90F8340001282BD0012084F8340007
:1012440094F83500C0B2012804D0002384F8343067
:10125400022038BD022084F8350000206065204655
:10126400FFF7FDFEE26D3F239340AB6022681368F5
:1012740043F016031360236C23B12268136843F010
:10128400080313602268136843F00103136000200D
:10129400DFE70220DDE770B50446866D00F0FAF959
:1012A40094F83530DBB2022B06D08023636500232B
:1012B40084F83430012070BD05462268136823F099
:1012C400160313602268536923F080035361236C6F
:1012D400E3B12268136823F00803136022681368DB
:1012E40023F00103136023681B6813F0010F11D06E
:1012F40000F0D0F9431B052BF5D9202363650320A7
:1013040084F83500002384F83430D4E7A36C002B30
:10131400DFD1E3E7E26D3F239340B360012384F818
:101324003530002084F83400C5E70000F0B583B000
:10133400044600230193724B1D68724BA3FB0535D1
:10134400AD0A876D3E68C26D08239340334210D0C6
:1013540003681A6812F0040F0BD01A6822F0040212
:101364001A60C26D08239340BB60436D43F00103D0
:101374004365E26D01239340334209D022685269E8
:1013840012F0800F04D0BB60636D43F00203636509
:10139400E26D04239340334209D02268126812F0AC
:1013A400020F04D0BB60636D43F004036365E26D18
:1013B40010239340334224D02268126812F0080F9D
:1013C4001FD0BB6023681A6812F4802F0DD01B68ED
:1013D40013F4002F04D1236C9BB12046984710E0EE
:1013E400A36C73B1204698470BE01A6812F4807F0F
:1013F40003D11A6822F008021A60236C0BB120464C
:101404009847E26D20239340334255D022681268F6
:1014140012F0100F50D0BB6094F83530DBB2052BBE
:101424000ED023681A6812F4802F33D01B6813F48B
:10143400002F2AD1636C002B3ED0204698473BE016
:101444002268136823F0160313602268536923F09B
:1014540080035361236CA3B12268136823F008034B
:101464001360E26D3F239340BB60012384F8353061
:10147400002384F83430236D002B3FD02046984756
:101484003CE0A36C002BE7D1EBE7E36BA3B1204670
:10149400984711E01A6812F4807F09D11A6822F083
:1014A40010021A60012384F83530002384F83430A4
:1014B400E36B0BB120469847636DFBB1636D13F08A
:1014C400010F17D0052384F835302268136823F000
:1014D40001031360019B01330193AB4204D82368D9
:1014E4001B6813F0010FF5D1012384F83530002374
:1014F40084F83430E36C0BB12046984703B0F0BD58
:1015040008000020B5814E1B406D7047002808DBA1
:101514000901C9B200F1604000F5614080F8001390
:10152400704700F00F000901C9B2014B195470470C
:1015340014ED00E000B500F00700C0F1070CBCF1A9
:10154400040F28BF4FF0040C031D062B0FD9C31E34
:101554004FF0FF3E0EFA0CF021EA000199400EFA1A
:1015640003FE22EA0E0241EA02005DF804FB0023B6
:10157400EEE70000074AD36823F4E0631B041B0C66
:10158400000200F4E060034343F0BF6343F400331C
:10159400D360704700ED00E010B50446054BD868F1
:1015A400C0F30220FFF7C6FF01462046FFF7AEFF57
:1015B40010BD00BF00ED00E0002807DB00F01F02B3
:1015C400400901239340024A42F82030704700BF8B
:1015D40000E100E00138B0F1807F0BD24FF0E0234E
:1015E4005861054AF02182F82310002098610722EF
:1015F4001A6170470120704700ED00E010B5044601
:101604000E4B1A784FF47A73B3FBF2F30C4A10685A
:10161400B0FBF3F0FFF7DEFF68B90F2C01D901200E
:101624000AE0002221464FF0FF30FFF7B5FF054BDB
:101634001C60002000E0012010BD00BF000000205D
:10164400080000200400002008B50B4B1A6842F47F
:1016540000721A601A6842F480621A601A6842F4CE
:1016640080721A600320FFF785FF0F20FFF7C6FF83
:10167400FEF7E4FF002008BD003C0240034A116865
:10168400034B1B780B441360704700BFAC01002070
:1016940000000020014B1868704700BFAC01002017
:1016A40038B50446FFF7F6FF0546B4F1FF3F02D014
:1016B400044B1B781C44FFF7EDFF401BA042FAD3F8
:1016C40038BD00BF00000020026802F10C0353E89B
:1016D400003F23F0C0030C3242E800310029F3D16B
:1016E400202380F83D307047026802F10C0353E870
:1016F400003F23F490730C3242E800310029F3D107
:10170400026802F1140353E8003F23F0010314328A
:1017140042E800310029F3D1036B012B05D02023CB
:1017240080F83E30002303637047026802F10C0323
:1017340053E8003F23F010030C3242E80031002943
:10174400F3D1ECE710B504460268136923F440535F
:10175400C1680B431361836802691A4343691A43DE
:10176400C3691A430168CB6823F4164323F00C03BE
:101774001343CB600268536923F4407381690B43BC
:1017840053610368314A934206D002F58062934262
:1017940002D0FFF753FB01E0FFF760FBE369B3F509
:1017A400004F29D00021031849411B1841F10001C1
:1017B400C90041EA5371DB00181863684FEA8302D9
:1017C4004FEA937341F10001FEF7E2FC204AA2FBC9
:1017D40000314909642303FB11031B013233A2FBCB
:1017E40003235B0903F0F00202EB011203F00F0381
:1017F400216813448B6010BD0023021843EB0301DE
:10180400121841F10001C90041EA5271D2001018C6
:1018140041F10001626892185B41FEF7B9FC0C4A81
:10182400A2FB00314909642303FB1103DB003233BB
:10183400A2FB03235B095A0002F4F87202EB0112C3
:1018440003F00703216813448B60D4E700100140C0
:101854001F85EB5158B310B5044690F83D300BB3D7
:10186400242384F83D302268D36823F40053D360E2
:101874002046FFF767FF2268136923F4904313613E
:101884002268536923F02A0353612268D36843F41E
:101894000053D36000202064202384F83D3084F872
:1018A4003E3010BD80F83C30FEF730FED8E7012012
:1018B4007047000038B5134690F83D20D2B2202A74
:1018C40037D10446002936D0002B36D090F83C207E
:1018D400012A34D0012280F83C2001628384C3842D
:1018E40000250564212280F83D20426B1548D06311
:1018F400626B15481064626B1448D064626B1565A2
:1019040022680432606BFFF791FC23686FF0400299
:101914001A6084F83C50226802F1140353E8003F33
:1019240043F08003143242E800310029F3D100204F
:1019340000E0022038BD0120FCE70120FAE7022084
:10194400F8E700BF491A0008971A0008A71A000808
:1019540010B50446226802F10C0353E8003F23F457
:10196400F0730C3242E800310029F3D1226802F10D
:10197400140353E8003F23F00103143242E800311A
:101984000029F3D1236B012B3CD023685B6913F04E
:10199400800F13D0226802F1140353E8003F23F0B0
:1019A4008003143242E800310029F3D1636B2BB178
:1019B40000221A65606BFFF76EFC80BB23685B69CD
:1019C40013F0400F13D0226802F1140353E8003FD0
:1019D40023F04003143242E800310029F3D1A36B11
:1019E4002BB100221A65A06BFFF755FC00BB002049
:1019F400E084E0852064202384F83E3084F83D3080
:101A0400206310BD226802F10C0353E8003F23F069
:101A140010030C3242E800310029F3D1B5E7606BC2
:101A2400FFF772FD2028C9D1102323640320E8E7BF
:101A3400A06BFFF769FD2028D9D11023236403206C
:101A4400DFE7704708B50346806B1B681B6813F417
:101A5400807F1AD10023C384026802F1140353E87F
:101A6400003F23F08003143242E800310029F3D10F
:101A7400026802F10C0353E8003F43F040030C32C8
:101A840042E800310029F3D108BDFFF7DAFFFBE794
:101A9400704708B5806BFFF7FBFF08BD70477047C0
:101AA400704710B5846B23685A6994F83D30DBB2F3
:101AB400212B10D023685A6902F0400294F83E307A
:101AC400DBB2222B11D0236C43F010032364204695
:101AD400FFF7E6FF10BD02F08002002AEAD00023DF
:101AE400E3842046FFF7F0FDE4E7002AEBD000236F
:101AF400E3852046FFF7F8FDE5E7704708B5806BFE
:101B0400036B012B02D0FFF7CAFF08BD818D490882
:101B1400FFF7F3FFF9E708B50346806B1B681B6802
:101B240013F4807F2BD10023C385026802F10C03D8
:101B340053E8003F23F480730C3242E8003100295B
:101B4400F3D1026802F1140353E8003F23F00103C8
:101B5400143242E800310029F3D1026802F114037F
:101B640053E8003F23F04003143242E800310029D7
:101B7400F3D1202380F83E30036B012B05D0036B97
:101B8400012B0FD0FFF78AFF08BD026802F10C0396
:101B940053E8003F23F010030C3242E800310029DF
:101BA400F3D1ECE7818DFFF7A8FFEDE730B583B003
:101BB400044613468162828500250564222280F84A
:101BC4003E20826B2048D063A26B20481064A26B35
:101BD4001F48D064A26B156520680A46011DA06BDE
:101BE400FFF724FB019523681A6801925B6801934F
:101BF400019B84F83C5023695BB1226802F10C0319
:101C040053E8003F43F480730C3242E8003100296A
:101C1400F3D1226802F1140353E8003F43F00103B7
:101C2400143242E800310029F3D1226802F114038E
:101C340053E8003F43F04003143242E800310029E6
:101C4400F3D1002003B030BD1B1B0008011B0008AA
:101C5400A71A000808B590F83E30DBB2202B0DD14E
:101C640071B17AB190F83C30012B0DD0012380F88A
:101C74003C3000230363FFF799FF00E0022008BD16
:101C84000120FCE70120FAE70220F8E7034AD2F832
:101C9400883043F47003C2F88830704700ED00E0E8
:101CA40008B5012000F020F80AE001224FF40051A9
:101CB4000A48FFF7CEF96420FFF7F2FC00F026F89B
:101CC40001210748FFF7BEF90028EED100224FF4A6
:101CD40000510248FFF7BDF9EDE700BF00080240DC
:101CE4000000024000BF704710B504466420FFF7AF
:101CF400D7FC012C01D000BF10BD4FF48272024901
:101D0400204600F08FF9F7E7C401002010B51C4C01
:101D1400012240F2E931204600F07DF9022240F22E
:101D2400EA31204600F077F9032240F2EB312046F5
:101D340000F071F904224FF47B71204600F06BF936
:101D4400052240F2ED31204600F065F9062240F20A
:101D5400EE31204600F05FF9072240F2EF312046D1
:101D640000F059F908224FF47C71204600F053F931
:101D7400092240F2F131204600F04DF900BF10BDB8
:101D84002C000020012801D000BF704738B504465C
:101D94000B4800F076F8054608B900BF38BDB0F12D
:101DA400FF3FFBD000BF012202210648FFF751F993
:101DB400EAB2034B1969204600F052F900BFEDE77F
:101DC4000C0000200000024070B504464FF0000EE5
:101DD40014E0032906D0062904D0102902D00BE010
:101DE400042909D170BD0129FCD00529FAD00F2995
:101DF400F8D001E00229F5D00EF1010E207E7045E5
:101E04001CDD606950F82E000028EBD0B0F800C04B
:101E14009445F1D8D5184688B4446545ECDC057979
:101E2400032DE9D801A656F825F000BFD71D0008F8
:101E3400E51D0008EB1D0008F91D00080020D1E78E
:101E4400844610B14FF6FF700FE07047400801332D
:101E5400DBB2072B07D810F0010FF7D04AF20102CA
:101E640082EA5000F3E7013989B249B100F47F43B3
:101E74001CF8012BC0B24240134498B20023E8E797
:101E84007047002800F0B8802DE9F0470646056940
:101E9400002D00F0B480027B012A14D0717E2B78CF
:101EA400994240F0AF8095F8019009F1FF33DBB21D
:101EB400052B0AD9A9F10F03DBB2012B00F2A5808F
:101EC400AC79073402E00635E8E706245AB92F5DF9
:101ED400631CEB5C47EA032721462846FFF7B0FF63
:101EE400874240F09580336803B19847B9F1030FF6
:101EF40019D0B9F1060F4FD049F080031B0243F00B
:101F040001036B800324337B012B6ED0A1B22846DE
:101F1400FFF796FF2855631CC0F30720E854A01C64
:101F240000BFBDE8F08795F80380AB7848EA032842
:101F34006C792B7944EA03240FFA84FA2346424647
:101F440049463046FFF740FF074650B14FEA4A0A78
:101F540085F802A0B36813B1224641469847002190
:101F640015E049F42073A5F801300324CBE708EB0E
:101F740001039BB23A889B1A9BB2BA6832F81300E9
:101F84004B000333020A42EA0022EA5201318C4236
:101F9400EDDC64000334B6E7EF78AB7847EA032757
:101FA40001233A4649463046FFF70EFF0346A0B1E7
:101FB40000BF68792A7940EA022099681A88BA1A17
:101FC40021F81200D6F80480B8F1000F03D00122E2
:101FD40039461846C04700BF95E749F080031B0205
:101FE40043F002036B8003248DE7230243EA242396
:101FF40025F8023CA01D94E74FF0FF3070474FF0E6
:10200400FF308EE74FF0FF308BE74FF0FF3088E76B
:102014004FF0FF3085E783680088091A23F8112000
:102024007047000070B50D4616466420FFF738FB74
:10203400094C2268D36843F01003D360E685A56297
:10204400002202210548FFF704F84FF48272A16AC6
:102054002046FFF7FFFD70BD68010020000002402C
:1020640008B5012804D000BF0020FFF723FC08BDF9
:102074000048FAE76801002010B5384B1B681A685D
:1020840012F0100F3DD06FF010021A60334B1A6833
:102094006FF02001116000BF9B6B1B685B68B3F598
:1020A400827F00D110BD2D4C23686FF008021A60A6
:1020B40023686FF002021A6023686FF001021A604D
:1020C40023686FF080021A6023686FF004021A60BC
:1020D4002268536923F0400353612046FFF738FC1C
:1020E4000120FFF74FFE1E4B4FF4FA621A80A06BDB
:1020F400FFF7D1F84FF48272A16A2046FFF7AAFDD8
:10210400D0E71A6812F0200F03D06FF020021A6093
:10211400C8E71A6812F0400F11D16FF400721A6008
:102124000E4B1A686FF4807111601A686FF04001E9
:1021340011601B686FF010021A6000BFB2E76FF005
:1021440040021A6000BF002202210648FEF781FF08
:10215400024B5B6B1B685B68A4E700BF680100204F
:10216400C80200200000024002440346934200D10A
:10217400704703F8011BF9E770B50D4D0D4C641B56
:10218400A4100026A64209D10B4D0C4C00F076F9A0
:10219400641BA4100026A64205D170BD55F8043B6B
:1021A40098470136EEE755F8043B98470136F2E7C5
:1021B400C0240008C0240008C0240008C424000867
:1021C4002DE9F047089D0C46002B4ED194468C45D2
:1021D4008646B2FA82F262D94AB1C2F12003914032
:1021E40020FA03F30CFA02FC194300FA02FE4FEA48
:1021F4001C471FFA8CF6B1FBF7F44FEA1E4307FBAA
:10220400141143EA014304FB06F199420AD91CEB79
:10221400030304F1FF3080F01381994240F21081EE
:10222400023C6344591A1FFA8EF3B1FBF7F007FB23
:10223400101143EA014300FB06F69E420AD91CEB47
:10224400030300F1FF3180F0FD809E4240F2FA80EA
:10225400634402389B1B40EA044000211DB1D34073
:102264000022C5E90032BDE8F0878B4205D90DB1E3
:10227400C5E9000100210846F5E7B3FA83F1002916
:1022840046D1A34202D39042C0F0F180861A64EB97
:1022940003030120002DE6D0C5E90063E3E7002A2B
:1022A40040F09180A1EB0C044FEA1C481FFA8CF714
:1022B4000121B4FBF8F64FEA1E4308FB164443EA37
:1022C400044307FB06F0984208D91CEB030306F10C
:1022D400FF3402D2984200F2CE8026461C1A1FFA1E
:1022E4008EF3B4FBF8F008FB104443EA044300FB0C
:1022F40007F79F4208D91CEB030300F1FF3402D215
:102304009F4200F2B1802046DB1B40EA0640A5E76D
:10231400C1F120068B4022FA06F71F4320FA06FC7F
:1023240004FA01F343EA0C03F44000FA01F8380C10
:102334004FEA1349B4FBF0FE1FFA87FC00FB1E446E
:1023440049EA04440EFB0CF9A14502FA01F20AD948
:102354003C190EF1FF3A80F08580A14540F282805D
:10236400AEF1020E3C44A4EB09041FFA83F9B4FB5A
:10237400F0F300FB134449EA044403FB0CFCA445BA
:1023840007D93C1903F1FF3068D2A44566D9023B52
:102394003C4443EA0E40A0FB0293A4EB0C049C4291
:1023A400CE469C4652D34FD055B1B8EB0E0364EBE6
:1023B4000C0404FA06F6CB40CC401E43C5E9006485
:1023C4000021BDE8F087C2F1200320FA03F10CFAE2
:1023D40002FC24FA03F394400C434FEA1C4800FA2D
:1023E40002FE1FFA8CF7B3FBF8F008FB1031230C44
:1023F40043EA014300FB07F1994208D91CEB0303AC
:1024040000F1FF362CD299422AD9023863445B1A70
:10241400A4B2B3FBF8F108FB113344EA034401FB13
:1024240007F3A34208D91CEB040401F1FF3613D2CD
:10243400A34211D902396444E41A41EA004138E75D
:102444000446EFE6084605E7C845ADD2B9EB020EEF
:1024540063EB070C0138A7E73146EDE7034698E73D
:102464003046D4E7D6467EE7634402384CE7064656
:10247400234608460EE7023E63442FE7F8B500BF43
:10248400F8BC08BC9E467047F8B500BFF8BC08BC51
:042494009E467047A9
:1024980000061016000610160000000001020304D2
:1024A80000000000000000000102030406070809FC
:0824B8000CFDFF7F0100000094
:0424C000ED01000822
:0424C400C901000842
:1024C80001000000100000000024F40000000000DB
:1024D800E91C00080000000000000000C401002002
:1024E80028000020010100002C000020E9036400FE
:0824F80000000000B00100200B
:0400000508000209E4
:00000001FF
