:020000040800F2
:100000000000012009020008050600080706000894
:10001000090600080B0600080D0600080000000095
:100020000000000000000000000000000F060008B3
:10003000110600080000000013060008150600085D
:100040005902000859020008590200085902000824
:100050005902000859020008590200085902000814
:100060005902000859020008590200085902000804
:1000700059020008590200085902000859020008F4
:100080001D0600082D0600085902000800000000A7
:1000900000000000000000000000000059020008FD
:1000A00059020008590200085902000859020008C4
:1000B00059020008590200085902000859020008B4
:1000C00059020008590200085902000859020008A4
:1000D00059020008590200086D2A000800000000BB
:1000E00059020008590200085902000800000000E7
:1000F000000000000000000000000000590200089D
:1001000000000000590200085902000859020008C6
:1001100000000000000000000000000000000000DF
:100120005902000859020008590200085902000843
:10013000590200080000000000000000000000005C
:10014000000000000000000000000000590200084C
:100150005902000859020008590200085902000813
:1001600059020008590200080000000000000000C9
:10017000000000000000000000000000000000007F
:10018000000000005902000800000000000000000C
:040190005902000808
:1001940053B94AB9002908BF00281CBF4FF0FF31EA
:1001A4004FF0FF3000F00CB8ADF1080C6DE904CE4F
:1001B40002F002FDDDF804E0DDE9022304B070473B
:1001C400704700BF10B5054C237833B9044B13B105
:1001D4000448AFF300800123237010BD40000020C9
:1001E40000000000782E000808B5034B1BB103493A
:1001F4000348AFF3008008BD000000004400002065
:10020400782E0008DFF834D00D480E490E4A00233A
:1002140002E0D458C4500433C4188C42F9D30B4AB6
:100224000B4C002301E013600432A242FBD302F022
:1002340093F902F09DFC00F065F87047000001207E
:100244000000002040000020C02E000840000020D4
:10025400F4020020FEE772B6FEE7000000B595B098
:100264003022002108A802F07BFC002303930493AE
:100274000593069307930193204A116C41F0805132
:100284001164126C02F080520192019A02931C4A8A
:10029400136823F4404343F400431360136803F4E6
:1002A40040430293029B012308934FF48033099344
:1002B40002230E934FF480020F9219221092A82267
:1002C400119212930423139308A800F01FFF80B91E
:1002D4000F23039302210491002305934FF48052CA
:1002E4000692079303A801F061F920B915B05DF8EF
:1002F40004FBFFF7B0FFFFF7AEFF00BF003802407A
:100304000070004008B501F005FEFFF7A7FF00F0FC
:1003140009F800F069F800F0DDF800F087F802F061
:10032400A1F9FEE7F0B58BB0002405940694079478
:10033400089409940194294B1A6B42F004021A633D
:100344001A6B02F004020192019A02941A6B42F0B1
:1003540080021A631A6B02F080020292029A0394DA
:100364001A6B42F001021A631A6B02F00102039243
:10037400039A04941A6B42F002021A631B6B03F093
:1003840002030493049B164F22464FF4005138464F
:1003940001F0C6FA134D22460221284601F0C0FAA4
:1003A4004FF400530593012606960794089405A973
:1003B400384601F0D1F905960694079405A9284614
:1003C40001F0CAF90223059306960794089405A937
:1003D400284601F0C1F90BB0F0BD00BF003802405F
:1003E400000802400000024010B582B000240194CD
:1003F4000D4B1A6B42F400121A631B6B03F40013C7
:100404000193019B22462146102001F02BFD102070
:1004140001F038FD22462146112001F023FD112070
:1004240001F030FD02B010BD0038024008B50B48A1
:100434000B4B036042F21073436000238360C3607C
:100444004FF48042026143618361C361036200F03F
:100454005BFB00B908BDFFF7FEFEFBE75C00002074
:100464000054004030B589B00023039304930593EE
:10047400069307930268144B9A4201D009B030BD29
:1004840000250195114C236B43F002032363236B76
:1004940003F002030193019BC023039312230493EB
:1004A400032306930423079303A9094801F054F98D
:1004B4000295236C43F400132364236C03F40013A8
:1004C4000293029BDAE700BF005400400038024068
:1004D4000004024008B50A480A4B03604FF4E133B4
:1004E400436000238360C36003610C224261836123
:1004F400C36101F015FE00B908BDFFF7ACFEFBE7D0
:10050400700100200044004030B589B000230393FB
:1005140004930593069307930268334B9A4201D0E0
:1005240009B030BD04460025019503F5FA331A6C71
:1005340042F400321A641A6C02F400320192019AF5
:1005440002951A6B42F001021A631B6B03F001035C
:100554000293029B0C230393022304930323069325
:100564000723079303A9214801F0F6F82048214BFB
:1005740003604FF0006343608560C5604FF480639F
:10058400036145618561C5610562456201F04EFA0A
:1005940018BB174BA3639C631748184B03604FF0B9
:1005A40000634360402383600023C3604FF4806290
:1005B400026143618361C3610362436201F036FAFD
:1005C40070B90D4B63639C6300221146262001F031
:1005D40049FC262001F056FCA2E7FFF73CFED8E7D1
:1005E400FFF739FEEDE700BF004400400000024081
:1005F4001001002088600240B0000020A06002408A
:10060400FEE7FEE7FEE7FEE7FEE770477047704748
:1006140008B501F099FC08BD08B5024801F0ECFAF0
:1006240008BD00BF1001002008B5024801F0E4FA3B
:1006340008BD00BFB000002082B0002100910B4B28
:100644005A6C42F480425A645A6C02F4804200921A
:10065400009A01911A6C42F080521A641B6C03F0E8
:1006640080530193019B02B0704700BF00380240E1
:1006740003685A6912F4806F01D1002070476FF447
:1006840080625A6100230363202280F83D2080F8B1
:100694003E30026C42F00402026480F83C300120D7
:1006A40070472DE9F04107460D4690461E4624E06A
:1006B40001F056FC069BC01AB04200D8EEB90023E4
:1006C4003B63202287F83D2087F83E303A6C42F0A5
:1006D40020023A6487F83C3001201EE03B689C69A4
:1006E40025EA040C1FFA8CFCBCFA8CFC4FEA5C1C57
:1006F400E04511D1B6F1FF3FDAD1C5F30743012B31
:10070400ECD13B685B6925EA030C1FFA8CFCBCFA4C
:100714008CFC4FEA5C1CEBE70020BDE8F0812DE97E
:10072400F04105460E46174698463DE01A6842F4E5
:1007340000721A602B686FF480625A6100232B6385
:10074400202285F83D2085F83E302A6C42F00402D0
:100754002A6485F83C30012034E001F001FCA0EB70
:100764000800B84200D8FFB900232B63202285F883
:100774003D2085F83E302A6C42F020022A6485F838
:100784003C3001201EE02B689C6926EA0404A4B2D4
:10079400003C18BF0124A4B12B685A6912F4806F7D
:1007A400C4D1B7F1FF3FD8D1C6F30743012BEAD137
:1007B4002B685C6926EA0404A4B2003C18BF012437
:1007C400E9E70020BDE8F08170B504460D46164601
:1007D40023685B6913F0800F1CD12046FFF748FFA4
:1007E400D0B9B5F1FF3FF3D001F0BAFB801BA842AA
:1007F40001D8002DECD100232363202284F83D206E
:1008040084F83E30226C42F02002226484F83C30AA
:10081400012000E0002070BD0120FCE72DE9F04339
:1008240085B004460D4691461F46DDF830800D9E86
:100834000368196841F480711960009643460022E8
:100844004FF00111FFF72DFF60B9236805F0FE0595
:100854001D613346424626492046FFF760FF68B1D2
:10086400012008E023681B6813F4807F02D04FF452
:1008740000732364032005B0BDE8F08300230393D1
:1008840023685A6903929B690393039B324641464A
:100894002046FFF799FF30B9012F0FD123685FFA83
:1008A40089F61E61E7E7236C042B01D00120E2E7FF
:1008B4002268136843F400731360F7E723684FEA70
:1008C40019221A61324641462046FFF77DFF20B9BE
:1008D40023685FFA89F61E61CDE7236C042B01D0EF
:1008E4000120C8E72268136843F400731360F7E734
:1008F400020001002DE9F04784B004460D46164677
:1009040099460C9FDDF834800268136843F48063D1
:1009140013600368196841F480711960CDF8008090
:100924003B4600224FF00111FFF7BBFE70B95FFA9E
:1009340085FA236805F0FE051D6143463A464149A0
:100944002046FFF7ECFE68B1012008E023681B682D
:1009540013F4807F02D04FF400732364032004B0A7
:10096400BDE8F0870023039323685A6903929B69C7
:100974000393039B424639462046FFF725FF80B97F
:10098400B9F1010F18D12368F6B21E614246394607
:100994002046FFF719FF68B3236C042B24D00120F1
:1009A400DDE7236C042B01D00120D8E7226813680B
:1009B40043F400731360F7E72368320A1A6142466E
:1009C40039462046FFF700FF18B92368F6B21E61C6
:1009D400DCE7236C042B01D00120C0E722681368F4
:1009E40043F400731360F7E72268136843F4007359
:1009F4001360D4E72268136843F480731360CDF85E
:100A040000803B4600224FF001112046FFF749FECB
:100A140068B922684AF00103136143463A4609491A
:100A24002046FFF77CFE002899D0012097E7236831
:100A34001B6813F4807F02D04FF4007323640320F7
:100A44008DE700BF0200010070B504460D4616464E
:100A540023685B6913F0040F1CD12046FFF708FEDE
:100A6400D0B9B5F1FF3FF3D001F07AFA801BA84268
:100A740001D8002DECD100232363202284F83D20EB
:100A840084F83E30226C42F02002226484F83C3028
:100A9400012000E0002070BD0120FCE770B5054690
:100AA4000C4616462B68596911F0400F29D1596933
:100AB40011F0100F15D101F053FA801BA04201D898
:100AC400002CEFD100232B63202285F83D2085F8EC
:100AD4003E302A6C42F020022A6485F83C30012022
:100AE40070BD6FF010025A6100232B63202285F839
:100AF4003D2085F83E302A6C2A6485F83C3001207C
:100B0400EEE70020ECE70000002800F0CC8070B590
:100B1400044690F83D30002B77D0242384F83D30F0
:100B24002268136823F0010313602268136843F4F6
:100B3400004313602268136823F40043136000F039
:100B4400EBFD62685A4B9A4264D85A4B98428CBF68
:100B540000230123002B40F0A8805749A1FB00315A
:100B64008B0C25686A6822F03F0242EA91426A606F
:100B740021680A6A22F03F0266684D4DAE424FD8A2
:100B8400013313430B622168CA6922F44F4222F0F5
:100B9400FF026568464B9D424CD8431E6D00B3FB73
:100BA400F5F3013340F6FC70034278D0C3F30B0332
:100BB4001A43CA6121680B6823F0C003E269206A02
:100BC400024313430B6021688B6823F4034323F02F
:100BD400FF032269E068024313438B602168CB68FA
:100BE40023F0FF036269A06902431343CB602268C8
:100BF400136843F00103136000202064202384F869
:100C04003D30206384F83E0070BD80F83C30FFF72F
:100C140029FC82E7294B98428CBF0023012399E7E2
:100C24004FF4967505FB03F3254DA5FB03539B0970
:100C34000133A6E7A668BEB9431E05EB450CB3FB1A
:100C4400FCF30133C3F30B03B3FA83F35B0943BB34
:100C5400C6B9431E05EB4505B3FBF5F30133C3F3F6
:100C64000B0343F40043A3E7431E05EB850C0CEB95
:100C74008C0CB3FBFCF30133C3F30B03B3FA83F320
:100C84005B09E4E7431E05EB850505EB8505B3FB2E
:100C9400F5F30133C3F30B0343F4404388E7042320
:100CA40086E7012384E7012070470120ACE700BFF9
:100CB400A08601007F841E0083DE1B43FF083D00E5
:100CC400D34D62102DE9F04383B004460F4690469D
:100CD40099460C9E01F044F9054694F83D00C0B2D3
:100CE400202803D0022003B0BDE8F0830095192327
:100CF40001224B492046FFF7D4FC002840F08980AC
:100D040094F83C30012B00F08680012384F83C30B9
:100D140023681A6812F0010F03D11A6842F0010225
:100D24001A602268136823F400631360212384F893
:100D34003D30402384F83E30002323640A9B6362E1
:100D4400BDF82C306385638D2385364BE3620195B2
:100D540000964B46424639462046FFF75FFD002881
:100D64005BD1238D002B35D02A4631462046FFF730
:100D74002BFD20BB626A236812781A61626A531CD5
:100D84006362218D013989B22185638D9BB2013B58
:100D94009BB263852368586910F0040FE1D00029E1
:100DA400DFD052781A61636A01336362238D013B99
:100DB4002385638D9BB2013B9BB26385D1E7236C92
:100DC400042B01D001208EE72268136843F40073DA
:100DD4001360F7E72A4631462046FFF735FE50B147
:100DE400236C042B01D001207DE72268136843F4AF
:100DF40000731360F7E72268136843F40073136009
:100E0400202384F83D30002384F83E3084F83C30BD
:100E140069E7022067E7022065E7012063E700BF76
:100E2400020010000000FFFF2DE9F04387B00446E4
:100E34000F4690469946109E01F092F8054694F8A4
:100E44003D00C0B2202804D00227384607B0BDE8D0
:100E5400F08300951923012288492046FFF721FCDD
:100E6400002840F0438194F83C30012B00F040818D
:100E7400012384F83C3023681A6812F0010F03D16F
:100E84001A6842F001021A602268136823F40063AE
:100E94001360222384F83D30402384F83E3000233D
:100EA40023640E9B6362BDF83C306385638D2385A8
:100EB400734BE362019500964B4642463946204601
:100EC400FFF718FD0746002840F01481238D5BB915
:100ED400029323685A6902929A690292029A1A68E2
:100EE40042F400721A6075E0012B0AD0022B1AD06A
:100EF4000023059323685A6905929B690593059B12
:100F040068E02268136823F480631360002303936A
:100F140023685A6903929A690392039A1A6842F4FD
:100F240000721A6056E02268136823F48063136029
:100F34002268136843F40063136000230493236856
:100F44005A6904929B690493049B43E02A46314600
:100F54002046FFF7A3FD002840F0CE8023681A69DD
:100F6400636A1A70636A01336362238D013B2385CC
:100F7400638D9BB2013B9BB263852BE000953346A6
:100F8400002240492046FFF78CFB002840F0B68041
:100F94002268136843F40073136023681A69636A50
:100FA4001A70626A531C6362238D013B2385638D2F
:100FB4009BB2013B9BB2638523681B695370636AD0
:100FC40001336362238D013B2385638D9BB2013B17
:100FD4009BB26385238D002B7FD0032B54D8012B28
:100FE400B4D0022BCAD000953346002225492046AE
:100FF400FFF757FB002840F083802268136823F42E
:101004008063136023681A69636A1A70636A013320
:101014006362238D013B2385638D9BB2013B9BB2AD
:10102400638500953346002216492046FFF739FBB5
:10103400002867D12268136843F40073136023689F
:101044001A69636A1A70626A531C6362238D013BD6
:101054002385638D9BB2013B9BB2638523681B6927
:101064005370636A01336362238D013B2385638D6F
:101074009BB2013B9BB26385ACE700BF020010004A
:101084000000FFFF040001002A4631462046FFF716
:1010940005FD002838D123681A69636A1A70626AE8
:1010A400531C6362238D013B2385638D9BB2013BFB
:1010B4009BB263852368596911F0040F8AD01B69B8
:1010C4005370636A01336362238D013B2385638D0F
:1010D4009BB2013B9BB263857CE7202384F83D30BF
:1010E400002384F83E3084F83C30AEE60227ACE6B8
:1010F4000227AAE60127A8E60127A6E60127A4E617
:101104000127A2E60127A0E601279EE6002800F0B9
:10111400E08170B582B00446036813F0010F3BD040
:101124009F4B9B6803F00C03042B2CD09C4B9B68B7
:1011340003F00C03082B21D06368B3F5803F4FD034
:10114400B3F5A02F52D0964B1A6822F480321A605D
:101154001A6822F480221A606368002B50D000F0D1
:10116400FFFE05468E4B1B6813F4003F14D100F0BC
:10117400F7FE401B6428F5D90320B1E1884B5B6876
:1011840013F4800FD8D0864B1B6813F4003F03D0B0
:101194006368002B00F09F81236813F0020F54D082
:1011A4007F4B9B6813F00C0F3ED07D4B9B6803F084
:1011B4000C03082B33D0E368002B68D0794B012251
:1011C4001A6000F0CDFE0546754B1B6813F0020F44
:1011D40054D100F0C5FE401B0228F5D903207FE15D
:1011E4006F4A136843F480331360B5E76C4B1A6895
:1011F40042F480221A601A6842F480321A60ABE723
:1012040000F0AEFE0546664B1B6813F4003FC3D0E6
:1012140000F0A6FE401B6428F5D9032060E1604B72
:101224005B6813F4800FC6D15D4B1B6813F0020F8B
:1012340003D0E368012B40F05081594A136823F02E
:10124400F803216943EAC1031360236813F0080F0C
:1012540042D063696BB3534B0122C3F8802E00F074
:101264007FFE05464E4B5B6F13F0020F34D100F046
:1012740077FE401B0228F5D9032031E1484A136860
:1012840023F0F803216943EAC1031360DDE7454B0A
:1012940000221A6000F064FE0546414B1B6813F0FF
:1012A400020FD2D000F05CFE401B0228F5D90320C7
:1012B40016E13C4B0022C3F8802E00F051FE054697
:1012C400374B5B6F13F0020F06D000F049FE401B52
:1012D4000228F5D9032003E1236813F0040F77D023
:1012E4002F4B1B6C13F0805F33D1002301932C4BE5
:1012F4001A6C42F080521A641B6C03F08053019301
:10130400019B0125284B1B6813F4807F23D0A3681D
:10131400012B34D0052B38D0214B1A6F22F0010257
:101324001A671A6F22F004021A67A368002B3DD0D3
:1013340000F016FE06461A4B1B6F13F0020F46D13F
:1013440000F00EFE801B41F288339842F3D903204B
:10135400C6E00025D6E7144A136843F4807313608B
:1013640000F0FEFD0646104B1B6813F4807FCED1BF
:1013740000F0F6FD801B0228F5D90320B0E0084AEE
:10138400136F43F001031367CFE7054B1A6F42F065
:1013940004021A671A6F42F001021A67C5E700BF18
:1013A40000380240000047420070004000F0D8FDC1
:1013B4000646524B1B6F13F0020F08D000F0D0FD0D
:1013C400801B41F288339842F3D9032088E0EDB9B9
:1013D400A369002B00F08380484A926802F00C0253
:1013E400082A51D0022B17D0454B00221A6600F070
:1013F400B7FD0446414B1B6813F0007F42D000F058
:10140400AFFD001B0228F5D9032069E03B4A136CA9
:1014140023F080531364DBE7394B00221A6600F093
:101424009FFD0546354B1B6813F0007F06D000F086
:1014340097FD401B0228F5D9032051E0E369226A95
:101444001343626A43EA8213A26A5208013A43EAE6
:101454000243E26A43EA0263284A5360284B0122AA
:101464001A6600F07DFD0446244B1B6813F0007FD0
:1014740006D100F075FD001B0228F5D903202FE0EA
:1014840000202DE000202BE0012B2BD01B4B5B68B0
:1014940003F48001E269914226D103F03F02216AFC
:1014A4008A4223D1616A47F6C0721A40B2EB811FA7
:1014B4001ED103F44031A26A5208013AB1EB024F43
:1014C40018D103F07063E26AB3EB026F14D1002009
:1014D40006E001207047012002E0012000E0002026
:1014E40002B070BD0120FBE70120F9E70120F7E716
:1014F4000120F5E70120F3E70120F1E7003802407D
:101504000000474208B5264B9B6803F00C03042BEC
:1015140041D0082B41D1224B5A6802F03F025B684C
:1015240013F4800F12D01E4B5968C1F388111D4863
:101534000023A1FB0001FEF72BFE194B5B68C3F3EC
:10154400014301335B00B0FBF3F027E0144B586810
:10155400C0F388104FEA401CBCEB000C6EEB0E0E7F
:101564004FEA8E1343EA9C634FEA8C11B1EB0C01F2
:1015740063EB0E03DB0043EA5173C90011EB000C6B
:1015840043F10003990200234FEA8C2041EA9C5165
:10159400FEF7FEFDD1E7034800E0034808BD00BFA5
:1015A4000038024040787D010024F400002800F057
:1015B4009B8070B50D4604464F4B1B6803F0070330
:1015C4008B4208D2CBB24C4A1370136803F0070362
:1015D4008B4240F08B80236813F0020F17D013F076
:1015E400040F04D0454A936843F4E053936023689E
:1015F40013F0080F04D0414A936843F460439360A6
:101604003E4A936823F0F003A1680B439360236878
:1016140013F0010F32D06368012B21D09A1E012AE6
:1016240025D9364A126812F0020F61D033498A680C
:1016340022F0030213438B6000F092FC06462F4B0A
:101644009B6803F00C036268B3EB820F16D000F0C2
:1016540087FC801B41F288339842F0D9032042E092
:10166400264A126812F4003FE0D101203BE0234AED
:10167400126812F0007FD9D1012034E01E4B1B68A0
:1016840003F00703AB4207D9EAB21B4B1A701B687D
:1016940003F00703AB422DD1236813F0040F06D0E7
:1016A400164A936823F4E053E1680B43936023687C
:1016B40013F0080F07D0114A936823F4604321699B
:1016C40043EAC1039360FFF71DFF0C4B9B68C3F310
:1016D40003130B4AD35CD8400A4B18600A4B1868B2
:1016E40000F0F2FB002070BD012070470120FAE7F2
:1016F4000120F8E70120F6E7003C024000380240F0
:10170400A02E00080800002004000020014B1868E7
:10171400704700BF0800002008B5FFF7F7FF044B2F
:101724009B68C3F38223034AD35CD84008BD00BF3F
:1017340000380240982E000808B5FFF7E7FF044B75
:101744009B68C3F34233034AD35CD84008BD00BF4F
:1017540000380240982E000800230F2B00F2D78097
:1017640070B582B065E085684FEA430E032404FA3D
:101774000EF425EA0405CC6804FA0EF42C438460C4
:10178400446824EA02044A68C2F300129A402243DD
:1017940042605CE0DC08083450F8242003F00705BC
:1017A400AD004FF00F0E0EFA05FE22EA0E0E0A6986
:1017B400AA4042EA0E0240F824205CE0042200E041
:1017C400002202FA0EF22A430234514D45F8242035
:1017D400504A94686FEA0C0224EA0C054E6816F429
:1017E400801F01D04CEA04054A4CA560E46802EA73
:1017F40004054E6816F4001F01D04CEA0405454C5C
:10180400E560646802EA04054E6816F4003F01D0FE
:101814004CEA04053F4C6560246822404D6815F489
:10182400803F01D04CEA04023A4C226001330F2B72
:101834006BD801229A400C6804EA020C32EA0404D0
:10184400F4D14C6804F00304013C012C8BD94A68A0
:1018540002F00302032A09D0C4685D000322AA40EF
:1018640024EA02048A68AA402243C2604A6802F059
:101874000302022A8ED004684FEA430E032202FABE
:101884000EF224EA02044A6802F0030202FA0EF29B
:10189400224302604A6812F4403FC7D000220192FA
:1018A4001D4A546C44F480445464526C02F48042E3
:1018B4000192019A9C08A51C154A52F8255003F080
:1018C400030E4FEA8E0E0F2202FA0EF225EA0205EB
:1018D400124A90423FF474AF02F5806290420ED0F7
:1018E40002F5806290420CD002F5806290420AD0E8
:1018F40002F5806290423FF461AF072261E7012262
:101904005FE702225DE703225BE702B070BD704728
:1019140000380140003C0140003802400000024011
:101924000AB18161704709048161704730B4056868
:101934002C6824F480242C60046863608368402B42
:1019440005D0036899600368DA6030BC70470368A7
:101954009A600368D960F8E710B40368D9B2103903
:101964000C4AA2FB014212090B4CA25CC2655F291E
:1019740009D923F47F7323F0030304338365806D53
:101984005DF8044B704723F47F7323F003038365EE
:10199400F5E700BFABAAAAAA902E0008836A826961
:1019A40092B9012B0AD0022B02D00BB10020704750
:1019B400C36A13F0807F28D100207047C36AB3F153
:1019C400C07F24D000207047B2F5005F09D0022BFD
:1019D40025D9032B25D1C36A13F0807F23D100209E
:1019E4007047032B03D8DFE803F01404140A002023
:1019F4007047C36A13F0807F0DD100207047C36A1B
:101A0400B3F1C07F09D00020704701207047012046
:101A14007047012070470120704701207047012062
:101A240070470020704701207047000070B50446DD
:101A340000F096FA002C5BD00546022384F835307A
:101A4400002384F834302268136823F00103136000
:101A540023681A6812F0010F0AD000F081FA431BC0
:101A6400052BF5D920236365032084F8350070BD68
:101A74001A68204911406268A0680243E068024382
:101A84002069024360690243A0690243E06902439A
:101A9400206A02430A43616A04291ED01A60266838
:101AA400756925F00705636A1D43042B07D1A36AF2
:101AB4001D43E36A1BB12046FFF770FF90B97561BF
:101AC4002046FFF749FFE26D3F23934083600020E7
:101AD4006065012384F83530C9E7E16A206B01436E
:101AE4000A43DBE740236365012084F83500BEE741
:101AF4000120BCE73F8010F038B50446856D90F8AE
:101B0400340001282BD0012084F8340094F83500E7
:101B1400C0B2012804D0002384F83430022038BD38
:101B2400022084F83500002060652046FFF7FEFEA1
:101B3400E26D3F239340AB602268136843F01603C1
:101B44001360236C23B12268136843F00803136005
:101B54002268136843F0010313600020DFE70220CA
:101B6400DDE770B50446866D00F0FAF994F8353077
:101B7400DBB2022B06D080236365002384F8343063
:101B8400012070BD05462268136823F01603136014
:101B94002268536923F080035361236CE3B1226804
:101BA400136823F0080313602268136823F0010309
:101BB400136023681B6813F0010F11D000F0D0F9F3
:101BC400431B052BF5D920236365032084F83500D6
:101BD400002384F83430D4E7A36C002BDFD1E3E78F
:101BE400E26D3F239340B360012384F83530002035
:101BF40084F83400C5E70000F0B583B00446002340
:101C04000193724B1D68724BA3FB0535AD0A876DBA
:101C14003E68C26D08239340334210D003681A68AB
:101C240012F0040F0BD01A6822F004021A60C26D7D
:101C340008239340BB60436D43F001034365E26DA9
:101C440001239340334209D02268526912F0800F75
:101C540004D0BB60636D43F002036365E26D04234B
:101C64009340334209D02268126812F0020F04D064
:101C7400BB60636D43F004036365E26D102393401E
:101C8400334224D02268126812F0080F1FD0BB60C0
:101C940023681A6812F4802F0DD01B6813F4002FE8
:101CA40004D1236C9BB12046984710E0A36C73B118
:101CB400204698470BE01A6812F4807F03D11A6813
:101CC40022F008021A60236C0BB120469847E26D9B
:101CD40020239340334255D02268126812F0100F2B
:101CE40050D0BB6094F83530DBB2052B0ED023689E
:101CF4001A6812F4802F33D01B6813F4002F2AD1F2
:101D0400636C002B3ED0204698473BE02268136862
:101D140023F0160313602268536923F08003536190
:101D2400236CA3B12268136823F008031360E26DE7
:101D34003F239340BB60012384F83530002384F8AB
:101D44003430236D002B3FD0204698473CE0A36CF1
:101D5400002BE7D1EBE7E36BA3B12046984711E0F2
:101D64001A6812F4807F09D11A6822F010021A60EE
:101D7400012384F83530002384F83430E36B0BB14D
:101D840020469847636DFBB1636D13F0010F17D0C4
:101D9400052384F835302268136823F001031360A7
:101DA400019B01330193AB4204D823681B6813F0F1
:101DB400010FF5D1012384F83530002384F8343041
:101DC400E36C0BB12046984703B0F0BD0800002037
:101DD400B5814E1B406D7047002808DB0901C9B26C
:101DE40000F1604000F5614080F80013704700F096
:101DF4000F000901C9B2014B1954704714ED00E0FA
:101E040000B500F00700C0F1070CBCF1040F28BFB7
:101E14004FF0040C031D062B0FD9C31E4FF0FF3ED9
:101E24000EFA0CF021EA000199400EFA03FE22EAB0
:101E34000E0241EA02005DF804FB0023EEE7000015
:101E4400074AD36823F4E0631B041B0C000200F46C
:101E5400E060034343F0BF6343F40033D36070474F
:101E640000ED00E010B50446054BD868C0F302202D
:101E7400FFF7C6FF01462046FFF7AEFF10BD00BFC7
:101E840000ED00E0002807DB00F01F0240090123F9
:101E94009340024A42F82030704700BF00E100E05E
:101EA4000138B0F1807F0BD24FF0E0235861054A2E
:101EB400F02182F823100020986107221A617047EC
:101EC4000120704700ED00E010B504460E4B1A786F
:101ED4004FF47A73B3FBF2F30C4A1068B0FBF3F0DF
:101EE400FFF7DEFF68B90F2C01D901200AE00022B8
:101EF40021464FF0FF30FFF7B5FF054B1C60002073
:101F040000E0012010BD00BF0000002008000020F8
:101F14000400002008B50B4B1A6842F400721A60E2
:101F24001A6842F480621A601A6842F480721A6075
:101F34000320FFF785FF0F20FFF7C6FFFEF77CFBAA
:101F4400002008BD003C0240034A1168034B1B7883
:101F54000B441360704700BFB40100200000002050
:101F6400014B1868704700BFB401002038B504461F
:101F7400FFF7F6FF0546B4F1FF3F02D0044B1B7890
:101F84001C44FFF7EDFF401BA042FAD338BD00BF4D
:101F940000000020026802F10C0353E8003F23F024
:101FA400C0030C3242E800310029F3D1202380F829
:101FB4003D307047026802F10C0353E8003F23F4FC
:101FC40090730C3242E800310029F3D1026802F127
:101FD400140353E8003F23F00103143242E80031B4
:101FE4000029F3D1036B012B05D0202380F83E3068
:101FF400002303637047026802F10C0353E8003FB7
:1020040023F010030C3242E800310029F3D1ECE74D
:1020140010B504460268136923F44053C1680B43A6
:102024001361836802691A4343691A43C3691A43F3
:102034000168CB6823F4164323F00C031343CB60ED
:102044000268536923F4407381690B435361036845
:10205400314A934206D002F58062934202D0FFF7E0
:102064005BFB01E0FFF768FBE369B3F5004F29D0A0
:102074000021031849411B1841F10001C90041EA3C
:102084005371DB00181863684FEA83024FEA9373B5
:1020940041F10001FEF77CF8204AA2FB0031490916
:1020A400642303FB11031B013233A2FB03235B09EB
:1020B40003F0F00202EB011203F00F032168134452
:1020C4008B6010BD0023021843EB0301121841F189
:1020D4000001C90041EA5271D200101841F1000117
:1020E400626892185B41FEF753F80C4AA2FB003178
:1020F4004909642303FB1103DB003233A2FB0323EE
:102104005B095A0002F4F87202EB011203F00703B0
:10211400216813448B60D4E7001001401F85EB5104
:1021240058B310B5044690F83D300BB3242384F81B
:102134003D302268D36823F40053D3602046FFF770
:1021440067FF2268136923F490431361226853697B
:1021540023F02A0353612268D36843F40053D36005
:1021640000202064202384F83D3084F83E3010BDE4
:1021740080F83C30FEF7C8F9D8E70120704700002A
:1021840038B5134690F83D20D2B2202A37D1044600
:10219400002936D0002B36D090F83C20012A34D0C8
:1021A400012280F83C2001628384C38400250564F5
:1021B400212280F83D20426B1548D063626B15489C
:1021C4001064626B1448D064626B15652268043233
:1021D400606BFFF791FC23686FF040021A6084F88B
:1021E4003C50226802F1140353E8003F43F080039B
:1021F400143242E800310029F3D1002000E002202B
:1022040038BD0120FCE70120FAE70220F8E700BF0F
:1022140015230008632300087323000810B504463F
:10222400226802F10C0353E8003F23F4F0730C32EC
:1022340042E800310029F3D1226802F1140353E883
:10224400003F23F00103143242E800310029F3D1A6
:10225400236B012B3CD023685B6913F0800F13D0F0
:10226400226802F1140353E8003F23F08003143280
:1022740042E800310029F3D1636B2BB100221A65C7
:10228400606BFFF76EFC80BB23685B6913F0400F43
:1022940013D0226802F1140353E8003F23F04003F3
:1022A400143242E800310029F3D1A36B2BB1002290
:1022B4001A65A06BFFF755FC00BB0020E084E085A5
:1022C4002064202384F83E3084F83D30206310BD20
:1022D400226802F10C0353E8003F23F010030C3290
:1022E40042E800310029F3D1B5E7606BFFF772FDD6
:1022F4002028C9D1102323640320E8E7A06BFFF74B
:1023040069FD2028D9D1102323640320DFE7704717
:1023140008B50346806B1B681B6813F4807F1AD1D1
:102324000023C384026802F1140353E8003F23F03E
:102334008003143242E800310029F3D1026802F12B
:102344000C0353E8003F43F040030C3242E80031F1
:102354000029F3D108BDFFF7DAFFFBE7704708B5A2
:10236400806BFFF7FBFF08BD70477047704710B5DF
:10237400846B23685A6994F83D30DBB2212B10D06A
:1023840023685A6902F0400294F83E30DBB2222BF3
:1023940011D0236C43F0100323642046FFF7E6FFBB
:1023A40010BD02F08002002AEAD00023E384204614
:1023B400FFF7F0FDE4E7002AEBD00023E385204695
:1023C400FFF7F8FDE5E7704708B5806B036B012B59
:1023D40002D0FFF7CAFF08BD818D4908FFF7F3FF5C
:1023E400F9E708B50346806B1B681B6813F4807F0C
:1023F4002BD10023C385026802F10C0353E8003F8C
:1024040023F480730C3242E800310029F3D10268CE
:1024140002F1140353E8003F23F00103143242E8AD
:1024240000310029F3D1026802F1140353E8003F9C
:1024340023F04003143242E800310029F3D1202371
:1024440080F83E30036B012B05D0036B012B0FD0BA
:10245400FFF78AFF08BD026802F10C0353E8003F4E
:1024640023F010030C3242E800310029F3D1ECE7E9
:10247400818DFFF7A8FFEDE730B583B0044613461E
:102484008162828500250564222280F83E20826BC9
:102494002048D063A26B20481064A26B1F48D0640C
:1024A400A26B156520680A46011DA06BFFF724FB8B
:1024B400019523681A6801925B680193019B84F873
:1024C4003C5023695BB1226802F10C0353E8003FDE
:1024D40043F480730C3242E800310029F3D12268BE
:1024E40002F1140353E8003F43F00103143242E8BD
:1024F40000310029F3D1226802F1140353E8003FAC
:1025040043F04003143242E800310029F3D10020A3
:1025140003B030BDE7230008CD230008732300086F
:1025240008B590F83E30DBB2202B0DD171B17AB1F1
:1025340090F83C30012B0DD0012380F83C3000236F
:102544000363FFF799FF00E0022008BD0120FCE7C8
:102554000120FAE70220F8E7034AD2F8883043F46E
:102564007003C2F88830704700ED00E000B587B012
:1025740000238DF81730394B1B6802930123019314
:102584000DF1170200926B22D0213548FEF79AFB19
:10259400002858D100BF0A20FFF7E8FC07238DF874
:1025A40017302E4B1B680293012301930DF1170280
:1025B40000921922D0212A48FEF784FB002844D136
:1025C40000BF0A20FFF7D2FC18238DF81730234BE5
:1025D4001B680293012301930DF1170200921B2241
:1025E400D0211F48FEF76EFB002830D100BF0A201F
:1025F400FFF7BCFC18238DF81730184B1B680293A7
:10260400012301930DF1170200921C22D0211448DA
:10261400FEF758FBE8B900BF0A20FFF7A7FC012327
:102624008DF817300D4A1268029201930DF11702CA
:1026340000923822D0210A48FEF744FB58B900BF63
:1026440007B05DF804FB00BFA5E700BFB9E700BF12
:10265400CDE700BFE0E700BFF2E700BF0C000020B9
:102664005C00002000B585B0012000F035F8FFF7CC
:102674007DFF08E001224FF4005100F1804000F595
:102684000230FFF74DF96420FFF770FC00F036F8D4
:102694000B4B1B680293022301930A4B0093012303
:1026A400094A1288D0210948FEF7BEFB0028E1D070
:1026B40000224FF400510648FFF732F9E3E700BF68
:1026C4000C000020B8010020100000205C00002055
:1026D4000008024000BF704710B504466420FFF7AD
:1026E40045FC012C01D000BF10BD4FF48272024999
:1026F400204600F08FF9F7E7EC01002010B51C4CE0
:10270400012240F2E931204600F07DF9022240F234
:10271400EA31204600F077F9032240F2EB312046FB
:1027240000F071F904224FF47B71204600F06BF93C
:10273400052240F2ED31204600F065F9062240F210
:10274400EE31204600F05FF9072240F2EF312046D7
:1027540000F059F908224FF47C71204600F053F937
:10276400092240F2F131204600F04DF900BF10BDBE
:1027740034000020012801D000BF704738B504465A
:102784000B4800F076F8054608B900BF38BDB0F133
:10279400FF3FFBD000BF012202210648FFF7C0F82B
:1027A400EAB2034B1969204600F052F900BFEDE785
:1027B400140000200000024070B504464FF0000EE3
:1027C40014E0032906D0062904D0102902D00BE016
:1027D400042909D170BD0129FCD00529FAD00F299B
:1027E400F8D001E00229F5D00EF1010E207E7045EB
:1027F4001CDD606950F82E000028EBD0B0F800C052
:102804009445F1D8D5184688B4446545ECDC05797F
:10281400032DE9D801A656F825F000BFC727000804
:10282400D5270008DB270008E92700080020D1E7A6
:10283400844610B14FF6FF700FE070474008013333
:10284400DBB2072B07D810F0010FF7D04AF20102D0
:1028540082EA5000F3E7013989B249B100F47F43B9
:102864001CF8012BC0B24240134498B20023E8E79D
:102874007047002800F0B8802DE9F0470646056946
:10288400002D00F0B480027B012A14D0717E2B78D5
:10289400994240F0AF8095F8019009F1FF33DBB223
:1028A400052B0AD9A9F10F03DBB2012B00F2A58095
:1028B400AC79073402E00635E8E706245AB92F5DFF
:1028C400631CEB5C47EA032721462846FFF7B0FF69
:1028D400874240F09580336803B19847B9F1030FFC
:1028E40019D0B9F1060F4FD049F080031B0243F011
:1028F40001036B800324337B012B6ED0A1B22846E5
:10290400FFF796FF2855631CC0F30720E854A01C6A
:1029140000BFBDE8F08795F80380AB7848EA032848
:102924006C792B7944EA03240FFA84FA234642464D
:1029340049463046FFF740FF074650B14FEA4A0A7E
:1029440085F802A0B36813B1224641469847002196
:1029540015E049F42073A5F801300324CBE708EB14
:1029640001039BB23A889B1A9BB2BA6832F81300EF
:102974004B000333020A42EA0022EA5201318C423C
:10298400EDDC64000334B6E7EF78AB7847EA03275D
:1029940001233A4649463046FFF70EFF0346A0B1ED
:1029A40000BF68792A7940EA022099681A88BA1A1D
:1029B40021F81200D6F80480B8F1000F03D00122E8
:1029C40039461846C04700BF95E749F080031B020B
:1029D40043F002036B8003248DE7230243EA24239C
:1029E40025F8023CA01D94E74FF0FF3070474FF0EC
:1029F400FF308EE74FF0FF308BE74FF0FF3088E772
:102A04004FF0FF3085E783680088091A23F8112006
:102A14007047000070B50D4616466420FFF7A6FA0D
:102A2400094C2268D36843F01003D360E685A5629D
:102A3400002202210548FEF773FF4FF48272A16A57
:102A44002046FFF76DFD70BD7001002000000240BC
:102A540008B5012804D000BF0020FFF791FB08BD92
:102A64000048FAE77001002010B53A4B1B681A6859
:102A740012F0100F3ED06FF010021A60354B1A6836
:102A84006FF02001116000BF9B6B1B685B68B3F59E
:102A9400827F01D100BF10BD2E4C23686FF0080265
:102AA4001A6023686FF002021A6023686FF0010253
:102AB4001A6023686FF080021A6023686FF00402C2
:102AC4001A602268536923F0400353612046FFF7DC
:102AD400A5FB0120FFF74EFE1F4B4FF4FA621A804C
:102AE400A06BFFF73EF84FF48272A16A2046FFF70D
:102AF40017FDD0E71A6812F0200F03D06FF0200200
:102B04001A60C8E71A6812F0400F11D16FF400720E
:102B14001A60104B1A686FF4807111601A686FF0B4
:102B2400400111601B686FF010021A6000BFB2E729
:102B34006FF040021A6000BF002202210748FEF72E
:102B4400EFFE044B5B6B1B685B68002BA3D100BFDB
:102B5400A1E700BF70010020F00200200000024045
:102B640002440346934200D1704703F8011BF9E77E
:102B740070B50D4D0D4C641BA4100026A64209D15E
:102B84000B4D0C4C00F076F9641BA4100026A642F1
:102B940005D170BD55F8043B98470136EEE755F86A
:102BA400043B98470136F2E7B82E0008B82E000817
:102BB400B82E0008BC2E00082DE9F047089D0C46ED
:102BC400002B4ED194468C458646B2FA82F262D9E5
:102BD4004AB1C2F12003914020FA03F30CFA02FC3B
:102BE400194300FA02FE4FEA1C471FFA8CF6B1FBA8
:102BF400F7F44FEA1E4307FB141143EA014304FBB5
:102C040006F199420AD91CEB030304F1FF3080F06A
:102C14001381994240F21081023C6344591A1FFA0D
:102C24008EF3B1FBF7F007FB101143EA014300FBFD
:102C340006F69E420AD91CEB030300F1FF3180F033
:102C4400FD809E4240F2FA80634402389B1B40EAB6
:102C5400044000211DB1D3400022C5E90032BDE883
:102C6400F0878B4205D90DB1C5E900010021084662
:102C7400F5E7B3FA83F1002946D1A34202D3904287
:102C8400C0F0F180861A64EB03030120002DE6D026
:102C9400C5E90063E3E7002A40F09180A1EB0C044E
:102CA4004FEA1C481FFA8CF70121B4FBF8F64FEAEF
:102CB4001E4308FB164443EA044307FB06F098420C
:102CC40008D91CEB030306F1FF3402D2984200F248
:102CD400CE8026461C1A1FFA8EF3B4FBF8F008FBCC
:102CE400104443EA044300FB07F79F4208D91CEB56
:102CF400030300F1FF3402D29F4200F2B180204668
:102D0400DB1B40EA0640A5E7C1F120068B4022FA0E
:102D140006F71F4320FA06FC04FA01F343EA0C0306
:102D2400F44000FA01F8380C4FEA1349B4FBF0FE02
:102D34001FFA87FC00FB1E4449EA04440EFB0CF90D
:102D4400A14502FA01F20AD93C190EF1FF3A80F0CA
:102D54008580A14540F28280AEF1020E3C44A4EB92
:102D640009041FFA83F9B4FBF0F300FB134449EAA6
:102D7400044403FB0CFCA44507D93C1903F1FF30C0
:102D840068D2A44566D9023B3C4443EA0E40A0FB0A
:102D94000293A4EB0C049C42CE469C4652D34FD0E3
:102DA40055B1B8EB0E0364EB0C0404FA06F6CB4001
:102DB400CC401E43C5E900640021BDE8F087C2F1A0
:102DC400200320FA03F10CFA02FC24FA03F39440E2
:102DD4000C434FEA1C4800FA02FE1FFA8CF7B3FBBF
:102DE400F8F008FB1031230C43EA014300FB07F120
:102DF400994208D91CEB030300F1FF362CD2994207
:102E04002AD9023863445B1AA4B2B3FBF8F108FB75
:102E1400113344EA034401FB07F3A34208D91CEB32
:102E2400040401F1FF3613D2A34211D902396444D8
:102E3400E41A41EA004138E70446EFE6084605E7AC
:102E4400C845ADD2B9EB020E63EB070C0138A7E716
:102E54003146EDE7034698E73046D4E7D6467EE7A9
:102E6400634402384CE70646234608460EE7023E12
:102E740063442FE7F8B500BFF8BC08BC9E46704712
:0C2E8400F8B500BFF8BC08BC9E467047C3
:102E900000061016000610160000000001020304D0
:102EA00000000000000000000102030406070809FA
:082EB0000CFDFF7F0100000092
:042EB800ED01000820
:042EBC00C901000840
:102EC00001000000100000000024F40010270000A2
:102ED0004300000000000000D926000800000000A8
:102EE00000000000EC010020300000200101000083
:102EF00034000020E903640000000000D801002035
:0400000508000209E4
:00000001FF
