:020000040800F2
:100000000000012009020008050600080706000894
:10001000090600080B0600080D0600080000000095
:100020000000000000000000000000000F060008B3
:10003000110600080000000013060008150600085D
:100040005902000859020008590200085902000824
:100050005902000859020008590200085902000814
:100060005902000859020008590200085902000804
:1000700059020008590200085902000859020008F4
:100080001D0600082D0600085902000800000000A7
:1000900000000000000000000000000059020008FD
:1000A00059020008590200085902000859020008C4
:1000B00059020008590200085902000859020008B4
:1000C00059020008590200085902000859020008A4
:1000D00059020008590200085902000800000000F7
:1000E00059020008590200085902000800000000E7
:1000F000000000000000000000000000590200089D
:1001000000000000590200085902000859020008C6
:1001100000000000000000000000000000000000DF
:100120005902000859020008590200085902000843
:10013000590200080000000000000000000000005C
:10014000000000000000000000000000590200084C
:100150005902000859020008590200085902000813
:1001600059020008590200080000000000000000C9
:10017000000000000000000000000000000000007F
:10018000000000005902000800000000000000000C
:040190005902000808
:1001940053B94AB9002908BF00281CBF4FF0FF31EA
:1001A4004FF0FF3000F00CB8ADF1080C6DE904CE4F
:1001B40001F0C2FADDF804E0DDE9022304B070477F
:1001C400704700BF10B5054C237833B9044B13B105
:1001D4000448AFF300800123237010BD0C000020FD
:1001E40000000000F819000808B5034B1BB10349CF
:1001F4000348AFF3008008BD000000001000002099
:10020400F8190008DFF834D00D480E490E4A0023CF
:1002140002E0D458C4500433C4188C42F9D30B4AB6
:100224000B4C002301E013600432A242FBD301F023
:100234004DFA01F05DFA00F065F870470000012006
:10024400000000200C000020401A00080C000020D0
:1002540084010020FEE772B6FEE7000000B595B009
:100264003022002108A801F03BFA002303930493F1
:100274000593069307930193204A116C41F0805132
:100284001164126C02F080520192019A02931C4A8A
:10029400136823F4404343F400431360136803F4E6
:1002A40040430293029B012308934FF48033099344
:1002B40002230E934FF480020F9219221092A82267
:1002C400119212930423139308A800F0AFFA80B993
:1002D4000F23039302210491002305934FF48052CA
:1002E4000692079303A800F0F1FC20B915B05DF85D
:1002F40004FBFFF7B0FFFFF7AEFF00BF003802407A
:100304000070004008B501F0FDF8FFF7A7FF00F00A
:1003140007F800F067F800F0DDF800F085F8FEE774
:10032400F0B58BB0002405940694079408940994BE
:100334000194294B1A6B42F004021A631A6B02F0FF
:1003440004020192019A02941A6B42F080021A6329
:100354001A6B02F080020292029A03941A6B42F022
:1003640001021A631A6B02F001020392039A0494C5
:100374001A6B42F002021A631B6B03F0020304932C
:10038400049B164F22464FF40051384600F058FEA5
:10039400134D22460221284600F052FE4FF400532A
:1003A4000593012606960794089405A9384600F09B
:1003B40063FD05960694079405A9284600F05CFDA4
:1003C4000223059306960794089405A9284600F08D
:1003D40053FD0BB0F0BD00BF0038024000080240DE
:1003E4000000024010B582B0002401940D4B1A6B3A
:1003F40042F400121A631B6B03F400130193019B74
:1004040022462146102001F025F8102001F032F890
:1004140022462146112001F01DF8112001F02AF88E
:1004240002B010BD0038024008B50B480B4B036006
:100434000B4B436000238360C3604FF4804202612E
:1004440043618361C361036200F012F900B908BD1E
:10045400FFF701FFFBE700BF280000200054004025
:10046400A086010030B589B000230393049305935B
:10047400069307930268144B9A4201D009B030BD29
:1004840000250195114C236B43F002032363236B76
:1004940003F002030193019BC023039312230493EB
:1004A400032306930423079303A9094800F0E4FCFB
:1004B4000295236C43F400132364236C03F40013A8
:1004C4000293029BDAE700BF005400400038024068
:1004D4000004024008B50A480A4B03604FF4E133B4
:1004E400436000238360C36003610C224261836123
:1004F400C36101F0BBF800B908BDFFF7ACFEFBE730
:100504003C0100200044004030B589B0002303932F
:1005140004930593069307930268334B9A4201D0E0
:1005240009B030BD04460025019503F5FA331A6C71
:1005340042F400321A641A6C02F400320192019AF5
:1005440002951A6B42F001021A631B6B03F001035C
:100554000293029B0C230393022304930323069325
:100564000723079303A9214800F086FC2048214B68
:1005740003604FF0006343608560C5604FF480639F
:10058400036145618561C5610562456200F0C8FD8E
:1005940018BB174BA3639C631748184B03604FF0B9
:1005A40000634360402383600023C3604FF4806290
:1005B400026143618361C3610362436200F0B0FD81
:1005C40070B90D4B63639C6300221146262000F032
:1005D40041FF262000F04EFFA2E7FFF73CFED8E7DC
:1005E400FFF739FEEDE700BF004400400000024081
:1005F400DC000020886002407C000020A0600240F3
:10060400FEE7FEE7FEE7FEE7FEE770477047704748
:1006140008B500F091FF08BD08B5024800F0E6FDFA
:1006240008BD00BFDC00002008B5024800F0DEFD74
:1006340008BD00BF7C00002082B0002100910B4B5C
:100644005A6C42F480425A645A6C02F4804200921A
:10065400009A01911A6C42F080521A641B6C03F0E8
:1006640080530193019B02B0704700BF00380240E1
:10067400002800F0CC8070B5044690F83D30002B83
:1006840077D0242384F83D302268136823F00103D3
:1006940013602268136843F40043136022681368EC
:1006A40023F40043136000F0C7FB62685A4B9A427C
:1006B40064D85A4B98428CBF00230123002B40F08E
:1006C400A8805749A1FB00318B0C25686A6822F089
:1006D4003F0242EA91426A6021680A6A22F03F02BC
:1006E40066684D4DAE424FD8013313430B62216807
:1006F400CA6922F44F4222F0FF026568464B9D42CC
:100704004CD8431E6D00B3FBF5F3013340F6FC7087
:10071400034278D0C3F30B031A43CA6121680B6800
:1007240023F0C003E269206A024313430B6021688B
:100734008B6823F4034323F0FF032269E068024338
:1007440013438B602168CB6823F0FF036269A069BF
:1007540002431343CB602268136843F00103136020
:1007640000202064202384F83D30206384F83E0078
:1007740070BD80F83C30FFF775FE82E7294B984244
:100784008CBF0023012399E74FF4967505FB03F30F
:10079400254DA5FB03539B090133A6E7A668BEB903
:1007A400431E05EB450CB3FBFCF30133C3F30B030E
:1007B400B3FA83F35B0943BBC6B9431E05EB450596
:1007C400B3FBF5F30133C3F30B0343F40043A3E793
:1007D400431E05EB850C0CEB8C0CB3FBFCF30133D3
:1007E400C3F30B03B3FA83F35B09E4E7431E05EB9E
:1007F400850505EB8505B3FBF5F30133C3F30B0363
:1008040043F4404388E7042386E7012384E7012077
:1008140070470120ACE700BFA08601007F841E0062
:1008240083DE1B43FF083D00D34D6210002800F017
:10083400E08170B582B00446036813F0010F3BD029
:100844009F4B9B6803F00C03042B2CD09C4B9B68A0
:1008540003F00C03082B21D06368B3F5803F4FD01D
:10086400B3F5A02F52D0964B1A6822F480321A6046
:100874001A6822F480221A606368002B50D000F0BA
:1008840067FE05468E4B1B6813F4003F14D100F03D
:100894005FFE401B6428F5D90320B1E1884B5B68F7
:1008A40013F4800FD8D0864B1B6813F4003F03D099
:1008B4006368002B00F09F81236813F0020F54D06B
:1008C4007F4B9B6813F00C0F3ED07D4B9B6803F06D
:1008D4000C03082B33D0E368002B68D0794B01223A
:1008E4001A6000F035FE0546754B1B6813F0020FC5
:1008F40054D100F02DFE401B0228F5D903207FE1DE
:100904006F4A136843F480331360B5E76C4B1A687D
:1009140042F480221A601A6842F480321A60ABE70B
:1009240000F016FE0546664B1B6813F4003FC3D067
:1009340000F00EFE401B6428F5D9032060E1604BF3
:100944005B6813F4800FC6D15D4B1B6813F0020F74
:1009540003D0E368012B40F05081594A136823F017
:10096400F803216943EAC1031360236813F0080FF5
:1009740042D063696BB3534B0122C3F8802E00F05D
:10098400E7FD05464E4B5B6F13F0020F34D100F0C8
:10099400DFFD401B0228F5D9032031E1484A1368E2
:1009A40023F0F803216943EAC1031360DDE7454BF3
:1009B40000221A6000F0CCFD0546414B1B6813F081
:1009C400020FD2D000F0C4FD401B0228F5D9032049
:1009D40016E13C4B0022C3F8802E00F0B9FD054619
:1009E400374B5B6F13F0020F06D000F0B1FD401BD4
:1009F4000228F5D9032003E1236813F0040F77D00C
:100A04002F4B1B6C13F0805F33D1002301932C4BCD
:100A14001A6C42F080521A641B6C03F080530193E9
:100A2400019B0125284B1B6813F4807F23D0A36806
:100A3400012B34D0052B38D0214B1A6F22F0010240
:100A44001A671A6F22F004021A67A368002B3DD0BC
:100A540000F07EFD06461A4B1B6F13F0020F46D1C1
:100A640000F076FD801B41F288339842F3D90320CD
:100A7400C6E00025D6E7144A136843F48073136074
:100A840000F066FD0646104B1B6813F4807FCED140
:100A940000F05EFD801B0228F5D90320B0E0084A6F
:100AA400136F43F001031367CFE7054B1A6F42F04E
:100AB40004021A671A6F42F001021A67C5E700BF01
:100AC40000380240000047420070004000F040FD42
:100AD4000646524B1B6F13F0020F08D000F038FD8E
:100AE400801B41F288339842F3D9032088E0EDB9A2
:100AF400A369002B00F08380484A926802F00C023C
:100B0400082A51D0022B17D0454B00221A6600F058
:100B14001FFD0446414B1B6813F0007F42D000F0D8
:100B240017FD001B0228F5D9032069E03B4A136C2A
:100B340023F080531364DBE7394B00221A6600F07C
:100B440007FD0546354B1B6813F0007F06D000F007
:100B5400FFFC401B0228F5D9032051E0E369226A17
:100B64001343626A43EA8213A26A5208013A43EACF
:100B74000243E26A43EA0263284A5360284B012293
:100B84001A6600F0E5FC0446244B1B6813F0007F52
:100B940006D100F0DDFC001B0228F5D903202FE06C
:100BA40000202DE000202BE0012B2BD01B4B5B6899
:100BB40003F48001E269914226D103F03F02216AE5
:100BC4008A4223D1616A47F6C0721A40B2EB811F90
:100BD4001ED103F44031A26A5208013AB1EB024F2C
:100BE40018D103F07063E26AB3EB026F14D10020F2
:100BF40006E001207047012002E0012000E000200F
:100C040002B070BD0120FBE70120F9E70120F7E7FE
:100C14000120F5E70120F3E70120F1E70038024065
:100C24000000474208B5264B9B6803F00C03042BD5
:100C340041D0082B41D1224B5A6802F03F025B6835
:100C440013F4800F12D01E4B5968C1F388111D484C
:100C54000023A1FB0001FFF79BFA194B5B68C3F368
:100C6400014301335B00B0FBF3F027E0144B5868F9
:100C7400C0F388104FEA401CBCEB000C6EEB0E0E68
:100C84004FEA8E1343EA9C634FEA8C11B1EB0C01DB
:100C940063EB0E03DB0043EA5173C90011EB000C54
:100CA40043F10003990200234FEA8C2041EA9C514E
:100CB400FFF76EFAD1E7034800E0034808BD00BF20
:100CC4000038024040787D010024F400002800F040
:100CD4009B8070B50D4604464F4B1B6803F0070319
:100CE4008B4208D2CBB24C4A1370136803F007034B
:100CF4008B4240F08B80236813F0020F17D013F05F
:100D0400040F04D0454A936843F4E0539360236886
:100D140013F0080F04D0414A936843F4604393608E
:100D24003E4A936823F0F003A1680B439360236861
:100D340013F0010F32D06368012B21D09A1E012ACF
:100D440025D9364A126812F0020F61D033498A68F5
:100D540022F0030213438B6000F0FAFB06462F4B8C
:100D64009B6803F00C036268B3EB820F16D000F0AB
:100D7400EFFB801B41F288339842F0D9032042E014
:100D8400264A126812F4003FE0D101203BE0234AD6
:100D9400126812F0007FD9D1012034E01E4B1B6889
:100DA40003F00703AB4207D9EAB21B4B1A701B6866
:100DB40003F00703AB422DD1236813F0040F06D0D0
:100DC400164A936823F4E053E1680B439360236865
:100DD40013F0080F07D0114A936823F46043216984
:100DE40043EAC1039360FFF71DFF0C4B9B68C3F3F9
:100DF40003130B4AD35CD8400A4B18600A4B18689B
:100E040000F05AFB002070BD012070470120FAE772
:100E14000120F8E70120F6E7003C024000380240D8
:100E2400201A00080800002004000020014B186864
:100E3400704700BF0800002008B5FFF7F7FF044B18
:100E44009B68C3F38223034AD35CD84008BD00BF28
:100E540000380240181A000808B5FFF7E7FF044BF2
:100E64009B68C3F34233034AD35CD84008BD00BF38
:100E740000380240181A000800230F2B00F2D78014
:100E840070B582B065E085684FEA430E032404FA26
:100E94000EF425EA0405CC6804FA0EF42C438460AD
:100EA400446824EA02044A68C2F300129A402243C6
:100EB40042605CE0DC08083450F8242003F00705A5
:100EC400AD004FF00F0E0EFA05FE22EA0E0E0A696F
:100ED400AA4042EA0E0240F824205CE0042200E02A
:100EE400002202FA0EF22A430234514D45F824201E
:100EF400504A94686FEA0C0224EA0C054E6816F412
:100F0400801F01D04CEA04054A4CA560E46802EA5B
:100F140004054E6816F4001F01D04CEA0405454C44
:100F2400E560646802EA04054E6816F4003F01D0E7
:100F34004CEA04053F4C6560246822404D6815F472
:100F4400803F01D04CEA04023A4C226001330F2B5B
:100F54006BD801229A400C6804EA020C32EA0404B9
:100F6400F4D14C6804F00304013C012C8BD94A6889
:100F740002F00302032A09D0C4685D000322AA40D8
:100F840024EA02048A68AA402243C2604A6802F042
:100F94000302022A8ED004684FEA430E032202FAA7
:100FA4000EF224EA02044A6802F0030202FA0EF284
:100FB400224302604A6812F4403FC7D000220192E3
:100FC4001D4A546C44F480445464526C02F48042CC
:100FD4000192019A9C08A51C154A52F8255003F069
:100FE400030E4FEA8E0E0F2202FA0EF225EA0205D4
:100FF400124A90423FF474AF02F5806290420ED0E0
:1010040002F5806290420CD002F5806290420AD0D0
:1010140002F5806290423FF461AF072261E701224A
:101024005FE702225DE703225BE702B070BD704711
:1010340000380140003C01400038024000000240FA
:101044000AB18161704709048161704710B4036873
:10105400D9B210390C4AA2FB014212090B4CA25C12
:10106400C2655F2909D923F47F7323F00303043392
:101074008365806D5DF8044B704723F47F7323F020
:1010840003038365F5E700BFABAAAAAA101A0008F8
:10109400836A826992B9012B0AD0022B02D00BB168
:1010A40000207047C36A13F0807F28D10020704766
:1010B400C36AB3F1C07F24D000207047B2F5005F4B
:1010C40009D0022B25D9032B25D1C36A13F0807FC5
:1010D40023D100207047032B03D8DFE803F0140466
:1010E400140A00207047C36A13F0807F0DD10020DA
:1010F4007047C36AB3F1C07F09D000207047012054
:10110400704701207047012070470120704701207B
:10111400704701207047002070470120704700008D
:1011240070B5044600F014FA002C5BD00546022387
:1011340084F83530002384F834302268136823F0AF
:101144000103136023681A6812F0010F0AD000F03B
:10115400FFF9431B052BF5D920236365032084F88D
:10116400350070BD1A68204911406268A0680243C6
:10117400E06802432069024360690243A0690243B4
:10118400E0690243206A02430A43616A04291ED0CB
:101194001A602668756925F00705636A1D43042BE8
:1011A40007D1A36A1D43E36A1BB12046FFF770FF12
:1011B40090B975612046FFF749FFE26D3F239340E4
:1011C400836000206065012384F83530C9E7E16A53
:1011D400206B01430A43DBE740236365012084F865
:1011E4003500BEE70120BCE73F8010F0F0B583B0C6
:1011F400044600230193724B1D68724BA3FB053513
:10120400AD0A876D3E68C26D08239340334210D007
:1012140003681A6812F0040F0BD01A6822F0040253
:101224001A60C26D08239340BB60436D43F0010311
:101234004365E26D01239340334209D02268526929
:1012440012F0800F04D0BB60636D43F0020363654A
:10125400E26D04239340334209D02268126812F0ED
:10126400020F04D0BB60636D43F004036365E26D59
:1012740010239340334224D02268126812F0080FDE
:101284001FD0BB6023681A6812F4802F0DD01B682E
:1012940013F4002F04D1236C9BB12046984710E02F
:1012A400A36C73B1204698470BE01A6812F4807F50
:1012B40003D11A6822F008021A60236C0BB120468D
:1012C4009847E26D20239340334255D02268126838
:1012D40012F0100F50D0BB6094F83530DBB2052B00
:1012E4000ED023681A6812F4802F33D01B6813F4CD
:1012F400002F2AD1636C002B3ED0204698473BE058
:101304002268136823F0160313602268536923F0DC
:1013140080035361236CA3B12268136823F008038C
:101324001360E26D3F239340BB60012384F83530A2
:10133400002384F83430236D002B3FD02046984797
:101344003CE0A36C002BE7D1EBE7E36BA3B12046B1
:10135400984711E01A6812F4807F09D11A6822F0C4
:1013640010021A60012384F83530002384F83430E5
:10137400E36B0BB120469847636DFBB1636D13F0CB
:10138400010F17D0052384F835302268136823F041
:1013940001031360019B01330193AB4204D823681A
:1013A4001B6813F0010FF5D1012384F835300023B5
:1013B40084F83430E36C0BB12046984703B0F0BD99
:1013C40008000020B5814E1B002808DB0901C9B2C2
:1013D40000F1604000F5614080F80013704700F0B0
:1013E4000F000901C9B2014B1954704714ED00E014
:1013F40000B500F00700C0F1070CBCF1040F28BFD2
:101404004FF0040C031D062B0FD9C31E4FF0FF3EF3
:101414000EFA0CF021EA000199400EFA03FE22EACA
:101424000E0241EA02005DF804FB0023EEE700002F
:10143400074AD36823F4E0631B041B0C000200F486
:10144400E060034343F0BF6343F40033D360704769
:1014540000ED00E010B50446054BD868C0F3022047
:10146400FFF7C6FF01462046FFF7AEFF10BD00BFE1
:1014740000ED00E0002807DB00F01F024009012313
:101484009340024A42F82030704700BF00E100E078
:101494000138B0F1807F0BD24FF0E0235861054A48
:1014A400F02182F823100020986107221A61704706
:1014B4000120704700ED00E010B504460E4B1A7889
:1014C4004FF47A73B3FBF2F30C4A1068B0FBF3F0F9
:1014D400FFF7DEFF68B90F2C01D901200AE00022D2
:1014E40021464FF0FF30FFF7B5FF054B1C6000208D
:1014F40000E0012010BD00BF000000200800002013
:101504000400002008B50B4B1A6842F400721A60FC
:101514001A6842F480621A601A6842F480721A608F
:101524000320FFF785FF0F20FFF7C6FFFFF784F8BE
:10153400002008BD003C0240034A1168034B1B789D
:101544000B441360704700BF80010020000000209E
:10155400014B1868704700BF8001002010B5044695
:101564000268136923F44053C1680B431361836811
:1015740002691A4343691A43C3691A430168CB6871
:1015840023F4164323F00C031343CB60026853691E
:1015940023F4407381690B4353610368314A9342D6
:1015A40006D002F58062934202D0FFF745FC01E0C9
:1015B400FFF752FCE369B3F5004F29D0002103186B
:1015C40049411B1841F10001C90041EA5371DB0094
:1015D400181863684FEA83024FEA937341F10001DC
:1015E400FEF7D6FD204AA2FB00314909642303FB20
:1015F40011031B013233A2FB03235B0903F0F00246
:1016040002EB011203F00F03216813448B6010BD39
:101614000023021843EB0301121841F10001C90031
:1016240041EA5271D200101841F100016268921827
:101634005B41FEF7ADFD0C4AA2FB0031490964236E
:1016440003FB1103DB003233A2FB03235B095A00C3
:1016540002F4F87202EB011203F007032168134449
:101664008B60D4E7001001401F85EB5158B310B5CF
:10167400044690F83D300BB3242384F83D302268AF
:10168400D36823F40053D3602046FFF767FF226832
:10169400136923F4904313612268536923F02A03E6
:1016A40053612268D36843F40053D360002020645C
:1016B400202384F83D3084F83E3010BD80F83C305F
:1016C400FEF722FFD8E7012070470000034AD2F852
:1016D400883043F47003C2F88830704700ED00E0AE
:1016E40002440346934200D1704703F8011BF9E713
:1016F40070B50D4D0D4C641BA4100026A64209D1F3
:101704000B4D0C4C00F076F9641BA4100026A64285
:1017140005D170BD55F8043B98470136EEE755F8FE
:10172400043B98470136F2E7381A0008381A0008D3
:10173400381A00083C1A00082DE9F047089D0C46A9
:10174400002B4ED194468C458646B2FA82F262D979
:101754004AB1C2F12003914020FA03F30CFA02FCCF
:10176400194300FA02FE4FEA1C471FFA8CF6B1FB3C
:10177400F7F44FEA1E4307FB141143EA014304FB49
:1017840006F199420AD91CEB030304F1FF3080F0FF
:101794001381994240F21081023C6344591A1FFAA2
:1017A4008EF3B1FBF7F007FB101143EA014300FB92
:1017B40006F69E420AD91CEB030300F1FF3180F0C8
:1017C400FD809E4240F2FA80634402389B1B40EA4B
:1017D400044000211DB1D3400022C5E90032BDE818
:1017E400F0878B4205D90DB1C5E9000100210846F7
:1017F400F5E7B3FA83F1002946D1A34202D390421C
:10180400C0F0F180861A64EB03030120002DE6D0BA
:10181400C5E90063E3E7002A40F09180A1EB0C04E2
:101824004FEA1C481FFA8CF70121B4FBF8F64FEA83
:101834001E4308FB164443EA044307FB06F09842A0
:1018440008D91CEB030306F1FF3402D2984200F2DC
:10185400CE8026461C1A1FFA8EF3B4FBF8F008FB60
:10186400104443EA044300FB07F79F4208D91CEBEA
:10187400030300F1FF3402D29F4200F2B1802046FC
:10188400DB1B40EA0640A5E7C1F120068B4022FAA3
:1018940006F71F4320FA06FC04FA01F343EA0C039B
:1018A400F44000FA01F8380C4FEA1349B4FBF0FE97
:1018B4001FFA87FC00FB1E4449EA04440EFB0CF9A2
:1018C400A14502FA01F20AD93C190EF1FF3A80F05F
:1018D4008580A14540F28280AEF1020E3C44A4EB27
:1018E40009041FFA83F9B4FBF0F300FB134449EA3B
:1018F400044403FB0CFCA44507D93C1903F1FF3055
:1019040068D2A44566D9023B3C4443EA0E40A0FB9E
:101914000293A4EB0C049C42CE469C4652D34FD077
:1019240055B1B8EB0E0364EB0C0404FA06F6CB4095
:10193400CC401E43C5E900640021BDE8F087C2F134
:10194400200320FA03F10CFA02FC24FA03F3944076
:101954000C434FEA1C4800FA02FE1FFA8CF7B3FB53
:10196400F8F008FB1031230C43EA014300FB07F1B4
:10197400994208D91CEB030300F1FF362CD299429B
:101984002AD9023863445B1AA4B2B3FBF8F108FB0A
:10199400113344EA034401FB07F3A34208D91CEBC7
:1019A400040401F1FF3613D2A34211D9023964446D
:1019B400E41A41EA004138E70446EFE6084605E741
:1019C400C845ADD2B9EB020E63EB070C0138A7E7AB
:1019D4003146EDE7034698E73046D4E7D6467EE73E
:1019E400634402384CE70646234608460EE7023EA7
:1019F40063442FE7F8B500BFF8BC08BC9E467047A7
:0C1A0400F8B500BFF8BC08BC9E46704757
:101A10000006101600061016000000000102030464
:101A2000000000000000000001020304060708098E
:081A30000CFDFF7F0100000026
:041A3800ED010008B4
:041A3C00C9010008D4
:0C1A400001000000100000000024F40071
:0400000508000209E4
:00000001FF
